{
	"tipjar.sol": {
		"Tips": {
			"abi": [
				{
					"inputs": [],
					"stateMutability": "nonpayable",
					"type": "constructor"
				},
				{
					"inputs": [],
					"name": "addTips",
					"outputs": [],
					"stateMutability": "payable",
					"type": "function"
				},
				{
					"inputs": [
						{
							"internalType": "address payable",
							"name": "_walletAddress",
							"type": "address"
						},
						{
							"internalType": "string",
							"name": "_name",
							"type": "string"
						},
						{
							"internalType": "uint256",
							"name": "_percent",
							"type": "uint256"
						}
					],
					"name": "addWaitress",
					"outputs": [],
					"stateMutability": "nonpayable",
					"type": "function"
				},
				{
					"inputs": [],
					"name": "owner",
					"outputs": [
						{
							"internalType": "address",
							"name": "",
							"type": "address"
						}
					],
					"stateMutability": "view",
					"type": "function"
				},
				{
					"inputs": [],
					"name": "viewTips",
					"outputs": [
						{
							"internalType": "uint256",
							"name": "",
							"type": "uint256"
						}
					],
					"stateMutability": "view",
					"type": "function"
				},
				{
					"inputs": [],
					"name": "viewWaitress",
					"outputs": [
						{
							"components": [
								{
									"internalType": "address payable",
									"name": "walletAddress",
									"type": "address"
								},
								{
									"internalType": "string",
									"name": "name",
									"type": "string"
								},
								{
									"internalType": "uint256",
									"name": "percent",
									"type": "uint256"
								}
							],
							"internalType": "struct Tips.Waitress[]",
							"name": "",
							"type": "tuple[]"
						}
					],
					"stateMutability": "view",
					"type": "function"
				},
				{
					"inputs": [
						{
							"internalType": "uint256",
							"name": "",
							"type": "uint256"
						}
					],
					"name": "waitress",
					"outputs": [
						{
							"internalType": "address payable",
							"name": "walletAddress",
							"type": "address"
						},
						{
							"internalType": "string",
							"name": "name",
							"type": "string"
						},
						{
							"internalType": "uint256",
							"name": "percent",
							"type": "uint256"
						}
					],
					"stateMutability": "view",
					"type": "function"
				}
			],
			"devdoc": {
				"kind": "dev",
				"methods": {},
				"version": 1
			},
			"evm": {
				"assembly": "    /* \"tipjar.sol\":60:1121  contract Tips {... */\n  mstore(0x40, 0x80)\n    /* \"tipjar.sol\":110:161  constructor() {... */\n  callvalue\n  dup1\n  iszero\n  tag_1\n  jumpi\n  revert(0x00, 0x00)\ntag_1:\n  pop\n    /* \"tipjar.sol\":143:153  msg.sender */\n  caller\n    /* \"tipjar.sol\":135:140  owner */\n  0x00\n  0x00\n    /* \"tipjar.sol\":135:153  owner = msg.sender */\n  0x0100\n  exp\n  dup2\n  sload\n  dup2\n  0xffffffffffffffffffffffffffffffffffffffff\n  mul\n  not\n  and\n  swap1\n  dup4\n  0xffffffffffffffffffffffffffffffffffffffff\n  and\n  mul\n  or\n  swap1\n  sstore\n  pop\n    /* \"tipjar.sol\":60:1121  contract Tips {... */\n  dataSize(sub_0)\n  dup1\n  dataOffset(sub_0)\n  0x00\n  codecopy\n  0x00\n  return\nstop\n\nsub_0: assembly {\n        /* \"tipjar.sol\":60:1121  contract Tips {... */\n      mstore(0x40, 0x80)\n      jumpi(tag_1, lt(calldatasize, 0x04))\n      shr(0xe0, calldataload(0x00))\n      dup1\n      0x2d9e5387\n      eq\n      tag_2\n      jumpi\n      dup1\n      0x3227e180\n      eq\n      tag_3\n      jumpi\n      dup1\n      0x8da5cb5b\n      eq\n      tag_4\n      jumpi\n      dup1\n      0xb499b79a\n      eq\n      tag_5\n      jumpi\n      dup1\n      0xe83a1b00\n      eq\n      tag_6\n      jumpi\n      dup1\n      0xec066e3a\n      eq\n      tag_7\n      jumpi\n    tag_1:\n      revert(0x00, 0x00)\n        /* \"tipjar.sol\":353:447  function viewTips() public view returns (uint) {... */\n    tag_2:\n      callvalue\n      dup1\n      iszero\n      tag_8\n      jumpi\n      revert(0x00, 0x00)\n    tag_8:\n      pop\n      tag_9\n      tag_10\n      jump\t// in\n    tag_9:\n      mload(0x40)\n      tag_11\n      swap2\n      swap1\n      tag_12\n      jump\t// in\n    tag_11:\n      mload(0x40)\n      dup1\n      swap2\n      sub\n      swap1\n      return\n        /* \"tipjar.sol\":207:321  function addTips() public payable {... */\n    tag_3:\n      tag_13\n      tag_14\n      jump\t// in\n    tag_13:\n      stop\n        /* \"tipjar.sol\":81:101  address public owner */\n    tag_4:\n      callvalue\n      dup1\n      iszero\n      tag_15\n      jumpi\n      revert(0x00, 0x00)\n    tag_15:\n      pop\n      tag_16\n      tag_17\n      jump\t// in\n    tag_16:\n      mload(0x40)\n      tag_18\n      swap2\n      swap1\n      tag_19\n      jump\t// in\n    tag_18:\n      mload(0x40)\n      dup1\n      swap2\n      sub\n      swap1\n      return\n        /* \"tipjar.sol\":729:987  function addWaitress(... */\n    tag_5:\n      callvalue\n      dup1\n      iszero\n      tag_20\n      jumpi\n      revert(0x00, 0x00)\n    tag_20:\n      pop\n      tag_21\n      0x04\n      dup1\n      calldatasize\n      sub\n      dup2\n      add\n      swap1\n      tag_22\n      swap2\n      swap1\n      tag_23\n      jump\t// in\n    tag_22:\n      tag_24\n      jump\t// in\n    tag_21:\n      stop\n        /* \"tipjar.sol\":1020:1118  function viewWaitress() public view returns (Waitress[] memory) {... */\n    tag_6:\n      callvalue\n      dup1\n      iszero\n      tag_25\n      jumpi\n      revert(0x00, 0x00)\n    tag_25:\n      pop\n      tag_26\n      tag_27\n      jump\t// in\n    tag_26:\n      mload(0x40)\n      tag_28\n      swap2\n      swap1\n      tag_29\n      jump\t// in\n    tag_28:\n      mload(0x40)\n      dup1\n      swap2\n      sub\n      swap1\n      return\n        /* \"tipjar.sol\":643:669  Waitress[] public waitress */\n    tag_7:\n      callvalue\n      dup1\n      iszero\n      tag_30\n      jumpi\n      revert(0x00, 0x00)\n    tag_30:\n      pop\n      tag_31\n      0x04\n      dup1\n      calldatasize\n      sub\n      dup2\n      add\n      swap1\n      tag_32\n      swap2\n      swap1\n      tag_33\n      jump\t// in\n    tag_32:\n      tag_34\n      jump\t// in\n    tag_31:\n      mload(0x40)\n      tag_35\n      swap4\n      swap3\n      swap2\n      swap1\n      tag_36\n      jump\t// in\n    tag_35:\n      mload(0x40)\n      dup1\n      swap2\n      sub\n      swap1\n      return\n        /* \"tipjar.sol\":353:447  function viewTips() public view returns (uint) {... */\n    tag_10:\n        /* \"tipjar.sol\":394:398  uint */\n      0x00\n        /* \"tipjar.sol\":418:439  address(this).balance */\n      selfbalance\n        /* \"tipjar.sol\":411:439  return address(this).balance */\n      swap1\n      pop\n        /* \"tipjar.sol\":353:447  function viewTips() public view returns (uint) {... */\n      swap1\n      jump\t// out\n        /* \"tipjar.sol\":207:321  function addTips() public payable {... */\n    tag_14:\n      jump\t// out\n        /* \"tipjar.sol\":81:101  address public owner */\n    tag_17:\n      0x00\n      0x00\n      swap1\n      sload\n      swap1\n      0x0100\n      exp\n      swap1\n      div\n      0xffffffffffffffffffffffffffffffffffffffff\n      and\n      dup2\n      jump\t// out\n        /* \"tipjar.sol\":729:987  function addWaitress(... */\n    tag_24:\n        /* \"tipjar.sol\":892:897  owner */\n      0x00\n      0x00\n      swap1\n      sload\n      swap1\n      0x0100\n      exp\n      swap1\n      div\n      0xffffffffffffffffffffffffffffffffffffffff\n      and\n        /* \"tipjar.sol\":878:897  msg.sender == owner */\n      0xffffffffffffffffffffffffffffffffffffffff\n      and\n        /* \"tipjar.sol\":878:888  msg.sender */\n      caller\n        /* \"tipjar.sol\":878:897  msg.sender == owner */\n      0xffffffffffffffffffffffffffffffffffffffff\n      and\n      eq\n        /* \"tipjar.sol\":870:912  require(msg.sender == owner, \"Only owner\") */\n      tag_40\n      jumpi\n      mload(0x40)\n      0x08c379a000000000000000000000000000000000000000000000000000000000\n      dup2\n      mstore\n      0x04\n      add\n      tag_41\n      swap1\n      tag_42\n      jump\t// in\n    tag_41:\n      mload(0x40)\n      dup1\n      swap2\n      sub\n      swap1\n      revert\n    tag_40:\n        /* \"tipjar.sol\":923:931  waitress */\n      0x01\n        /* \"tipjar.sol\":937:978  Waitress(_walletAddress, _name, _percent) */\n      mload(0x40)\n      dup1\n      0x60\n      add\n      0x40\n      mstore\n      dup1\n        /* \"tipjar.sol\":946:960  _walletAddress */\n      dup6\n        /* \"tipjar.sol\":937:978  Waitress(_walletAddress, _name, _percent) */\n      0xffffffffffffffffffffffffffffffffffffffff\n      and\n      dup2\n      mstore\n      0x20\n      add\n        /* \"tipjar.sol\":962:967  _name */\n      dup5\n        /* \"tipjar.sol\":937:978  Waitress(_walletAddress, _name, _percent) */\n      dup2\n      mstore\n      0x20\n      add\n        /* \"tipjar.sol\":969:977  _percent */\n      dup4\n        /* \"tipjar.sol\":937:978  Waitress(_walletAddress, _name, _percent) */\n      dup2\n      mstore\n      pop\n        /* \"tipjar.sol\":923:979  waitress.push(Waitress(_walletAddress, _name, _percent)) */\n      swap1\n      dup1\n      0x01\n      dup2\n      sload\n      add\n      dup1\n      dup3\n      sstore\n      dup1\n      swap2\n      pop\n      pop\n      0x01\n      swap1\n      sub\n      swap1\n      0x00\n      mstore\n      keccak256(0x00, 0x20)\n      swap1\n      0x03\n      mul\n      add\n      0x00\n      swap1\n      swap2\n      swap1\n      swap2\n      swap1\n      swap2\n      pop\n      0x00\n      dup3\n      add\n      mload\n      dup2\n      0x00\n      add\n      exp(0x0100, 0x00)\n      dup2\n      sload\n      dup2\n      0xffffffffffffffffffffffffffffffffffffffff\n      mul\n      not\n      and\n      swap1\n      dup4\n      0xffffffffffffffffffffffffffffffffffffffff\n      and\n      mul\n      or\n      swap1\n      sstore\n      pop\n      0x20\n      dup3\n      add\n      mload\n      dup2\n      0x01\n      add\n      swap1\n      dup2\n      tag_44\n      swap2\n      swap1\n      tag_45\n      jump\t// in\n    tag_44:\n      pop\n      0x40\n      dup3\n      add\n      mload\n      dup2\n      0x02\n      add\n      sstore\n      pop\n      pop\n        /* \"tipjar.sol\":729:987  function addWaitress(... */\n      pop\n      pop\n      pop\n      jump\t// out\n        /* \"tipjar.sol\":1020:1118  function viewWaitress() public view returns (Waitress[] memory) {... */\n    tag_27:\n        /* \"tipjar.sol\":1065:1082  Waitress[] memory */\n      0x60\n        /* \"tipjar.sol\":1102:1110  waitress */\n      0x01\n        /* \"tipjar.sol\":1095:1110  return waitress */\n      dup1\n      sload\n      dup1\n      0x20\n      mul\n      0x20\n      add\n      mload(0x40)\n      swap1\n      dup2\n      add\n      0x40\n      mstore\n      dup1\n      swap3\n      swap2\n      swap1\n      dup2\n      dup2\n      mstore\n      0x20\n      add\n      0x00\n      swap1\n    tag_47:\n      dup3\n      dup3\n      lt\n      iszero\n      tag_48\n      jumpi\n      dup4\n      dup3\n      swap1\n      0x00\n      mstore\n      keccak256(0x00, 0x20)\n      swap1\n      0x03\n      mul\n      add\n      mload(0x40)\n      dup1\n      0x60\n      add\n      0x40\n      mstore\n      swap1\n      dup2\n      0x00\n      dup3\n      add\n      0x00\n      swap1\n      sload\n      swap1\n      0x0100\n      exp\n      swap1\n      div\n      0xffffffffffffffffffffffffffffffffffffffff\n      and\n      0xffffffffffffffffffffffffffffffffffffffff\n      and\n      0xffffffffffffffffffffffffffffffffffffffff\n      and\n      dup2\n      mstore\n      0x20\n      add\n      0x01\n      dup3\n      add\n      dup1\n      sload\n      tag_50\n      swap1\n      tag_51\n      jump\t// in\n    tag_50:\n      dup1\n      0x1f\n      add\n      0x20\n      dup1\n      swap2\n      div\n      mul\n      0x20\n      add\n      mload(0x40)\n      swap1\n      dup2\n      add\n      0x40\n      mstore\n      dup1\n      swap3\n      swap2\n      swap1\n      dup2\n      dup2\n      mstore\n      0x20\n      add\n      dup3\n      dup1\n      sload\n      tag_52\n      swap1\n      tag_51\n      jump\t// in\n    tag_52:\n      dup1\n      iszero\n      tag_53\n      jumpi\n      dup1\n      0x1f\n      lt\n      tag_54\n      jumpi\n      0x0100\n      dup1\n      dup4\n      sload\n      div\n      mul\n      dup4\n      mstore\n      swap2\n      0x20\n      add\n      swap2\n      jump(tag_53)\n    tag_54:\n      dup3\n      add\n      swap2\n      swap1\n      0x00\n      mstore\n      keccak256(0x00, 0x20)\n      swap1\n    tag_55:\n      dup2\n      sload\n      dup2\n      mstore\n      swap1\n      0x01\n      add\n      swap1\n      0x20\n      add\n      dup1\n      dup4\n      gt\n      tag_55\n      jumpi\n      dup3\n      swap1\n      sub\n      0x1f\n      and\n      dup3\n      add\n      swap2\n    tag_53:\n      pop\n      pop\n      pop\n      pop\n      pop\n      dup2\n      mstore\n      0x20\n      add\n      0x02\n      dup3\n      add\n      sload\n      dup2\n      mstore\n      pop\n      pop\n      dup2\n      mstore\n      0x20\n      add\n      swap1\n      0x01\n      add\n      swap1\n      jump(tag_47)\n    tag_48:\n      pop\n      pop\n      pop\n      pop\n      swap1\n      pop\n        /* \"tipjar.sol\":1020:1118  function viewWaitress() public view returns (Waitress[] memory) {... */\n      swap1\n      jump\t// out\n        /* \"tipjar.sol\":643:669  Waitress[] public waitress */\n    tag_34:\n      0x01\n      dup2\n      dup2\n      sload\n      dup2\n      lt\n      tag_56\n      jumpi\n      0x00\n      dup1\n      revert\n    tag_56:\n      swap1\n      0x00\n      mstore\n      keccak256(0x00, 0x20)\n      swap1\n      0x03\n      mul\n      add\n      0x00\n      swap2\n      pop\n      swap1\n      pop\n      dup1\n      0x00\n      add\n      0x00\n      swap1\n      sload\n      swap1\n      0x0100\n      exp\n      swap1\n      div\n      0xffffffffffffffffffffffffffffffffffffffff\n      and\n      swap1\n      dup1\n      0x01\n      add\n      dup1\n      sload\n      tag_58\n      swap1\n      tag_51\n      jump\t// in\n    tag_58:\n      dup1\n      0x1f\n      add\n      0x20\n      dup1\n      swap2\n      div\n      mul\n      0x20\n      add\n      mload(0x40)\n      swap1\n      dup2\n      add\n      0x40\n      mstore\n      dup1\n      swap3\n      swap2\n      swap1\n      dup2\n      dup2\n      mstore\n      0x20\n      add\n      dup3\n      dup1\n      sload\n      tag_59\n      swap1\n      tag_51\n      jump\t// in\n    tag_59:\n      dup1\n      iszero\n      tag_60\n      jumpi\n      dup1\n      0x1f\n      lt\n      tag_61\n      jumpi\n      0x0100\n      dup1\n      dup4\n      sload\n      div\n      mul\n      dup4\n      mstore\n      swap2\n      0x20\n      add\n      swap2\n      jump(tag_60)\n    tag_61:\n      dup3\n      add\n      swap2\n      swap1\n      0x00\n      mstore\n      keccak256(0x00, 0x20)\n      swap1\n    tag_62:\n      dup2\n      sload\n      dup2\n      mstore\n      swap1\n      0x01\n      add\n      swap1\n      0x20\n      add\n      dup1\n      dup4\n      gt\n      tag_62\n      jumpi\n      dup3\n      swap1\n      sub\n      0x1f\n      and\n      dup3\n      add\n      swap2\n    tag_60:\n      pop\n      pop\n      pop\n      pop\n      pop\n      swap1\n      dup1\n      0x02\n      add\n      sload\n      swap1\n      pop\n      dup4\n      jump\t// out\n        /* \"#utility.yul\":7:84   */\n    tag_63:\n        /* \"#utility.yul\":44:51   */\n      0x00\n        /* \"#utility.yul\":73:78   */\n      dup2\n        /* \"#utility.yul\":62:78   */\n      swap1\n      pop\n        /* \"#utility.yul\":7:84   */\n      swap2\n      swap1\n      pop\n      jump\t// out\n        /* \"#utility.yul\":90:208   */\n    tag_64:\n        /* \"#utility.yul\":177:201   */\n      tag_123\n        /* \"#utility.yul\":195:200   */\n      dup2\n        /* \"#utility.yul\":177:201   */\n      tag_63\n      jump\t// in\n    tag_123:\n        /* \"#utility.yul\":172:175   */\n      dup3\n        /* \"#utility.yul\":165:202   */\n      mstore\n        /* \"#utility.yul\":90:208   */\n      pop\n      pop\n      jump\t// out\n        /* \"#utility.yul\":214:436   */\n    tag_12:\n        /* \"#utility.yul\":307:311   */\n      0x00\n        /* \"#utility.yul\":345:347   */\n      0x20\n        /* \"#utility.yul\":334:343   */\n      dup3\n        /* \"#utility.yul\":330:348   */\n      add\n        /* \"#utility.yul\":322:348   */\n      swap1\n      pop\n        /* \"#utility.yul\":358:429   */\n      tag_125\n        /* \"#utility.yul\":426:427   */\n      0x00\n        /* \"#utility.yul\":415:424   */\n      dup4\n        /* \"#utility.yul\":411:428   */\n      add\n        /* \"#utility.yul\":402:408   */\n      dup5\n        /* \"#utility.yul\":358:429   */\n      tag_64\n      jump\t// in\n    tag_125:\n        /* \"#utility.yul\":214:436   */\n      swap3\n      swap2\n      pop\n      pop\n      jump\t// out\n        /* \"#utility.yul\":442:568   */\n    tag_65:\n        /* \"#utility.yul\":479:486   */\n      0x00\n        /* \"#utility.yul\":519:561   */\n      0xffffffffffffffffffffffffffffffffffffffff\n        /* \"#utility.yul\":512:517   */\n      dup3\n        /* \"#utility.yul\":508:562   */\n      and\n        /* \"#utility.yul\":497:562   */\n      swap1\n      pop\n        /* \"#utility.yul\":442:568   */\n      swap2\n      swap1\n      pop\n      jump\t// out\n        /* \"#utility.yul\":574:670   */\n    tag_66:\n        /* \"#utility.yul\":611:618   */\n      0x00\n        /* \"#utility.yul\":640:664   */\n      tag_128\n        /* \"#utility.yul\":658:663   */\n      dup3\n        /* \"#utility.yul\":640:664   */\n      tag_65\n      jump\t// in\n    tag_128:\n        /* \"#utility.yul\":629:664   */\n      swap1\n      pop\n        /* \"#utility.yul\":574:670   */\n      swap2\n      swap1\n      pop\n      jump\t// out\n        /* \"#utility.yul\":676:794   */\n    tag_67:\n        /* \"#utility.yul\":763:787   */\n      tag_130\n        /* \"#utility.yul\":781:786   */\n      dup2\n        /* \"#utility.yul\":763:787   */\n      tag_66\n      jump\t// in\n    tag_130:\n        /* \"#utility.yul\":758:761   */\n      dup3\n        /* \"#utility.yul\":751:788   */\n      mstore\n        /* \"#utility.yul\":676:794   */\n      pop\n      pop\n      jump\t// out\n        /* \"#utility.yul\":800:1022   */\n    tag_19:\n        /* \"#utility.yul\":893:897   */\n      0x00\n        /* \"#utility.yul\":931:933   */\n      0x20\n        /* \"#utility.yul\":920:929   */\n      dup3\n        /* \"#utility.yul\":916:934   */\n      add\n        /* \"#utility.yul\":908:934   */\n      swap1\n      pop\n        /* \"#utility.yul\":944:1015   */\n      tag_132\n        /* \"#utility.yul\":1012:1013   */\n      0x00\n        /* \"#utility.yul\":1001:1010   */\n      dup4\n        /* \"#utility.yul\":997:1014   */\n      add\n        /* \"#utility.yul\":988:994   */\n      dup5\n        /* \"#utility.yul\":944:1015   */\n      tag_67\n      jump\t// in\n    tag_132:\n        /* \"#utility.yul\":800:1022   */\n      swap3\n      swap2\n      pop\n      pop\n      jump\t// out\n        /* \"#utility.yul\":1028:1103   */\n    tag_68:\n        /* \"#utility.yul\":1061:1067   */\n      0x00\n        /* \"#utility.yul\":1094:1096   */\n      0x40\n        /* \"#utility.yul\":1088:1097   */\n      mload\n        /* \"#utility.yul\":1078:1097   */\n      swap1\n      pop\n        /* \"#utility.yul\":1028:1103   */\n      swap1\n      jump\t// out\n        /* \"#utility.yul\":1109:1226   */\n    tag_69:\n        /* \"#utility.yul\":1218:1219   */\n      0x00\n        /* \"#utility.yul\":1215:1216   */\n      0x00\n        /* \"#utility.yul\":1208:1220   */\n      revert\n        /* \"#utility.yul\":1232:1349   */\n    tag_70:\n        /* \"#utility.yul\":1341:1342   */\n      0x00\n        /* \"#utility.yul\":1338:1339   */\n      0x00\n        /* \"#utility.yul\":1331:1343   */\n      revert\n        /* \"#utility.yul\":1355:1459   */\n    tag_71:\n        /* \"#utility.yul\":1400:1407   */\n      0x00\n        /* \"#utility.yul\":1429:1453   */\n      tag_137\n        /* \"#utility.yul\":1447:1452   */\n      dup3\n        /* \"#utility.yul\":1429:1453   */\n      tag_65\n      jump\t// in\n    tag_137:\n        /* \"#utility.yul\":1418:1453   */\n      swap1\n      pop\n        /* \"#utility.yul\":1355:1459   */\n      swap2\n      swap1\n      pop\n      jump\t// out\n        /* \"#utility.yul\":1465:1603   */\n    tag_72:\n        /* \"#utility.yul\":1546:1578   */\n      tag_139\n        /* \"#utility.yul\":1572:1577   */\n      dup2\n        /* \"#utility.yul\":1546:1578   */\n      tag_71\n      jump\t// in\n    tag_139:\n        /* \"#utility.yul\":1539:1544   */\n      dup2\n        /* \"#utility.yul\":1536:1579   */\n      eq\n        /* \"#utility.yul\":1526:1597   */\n      tag_140\n      jumpi\n        /* \"#utility.yul\":1593:1594   */\n      0x00\n        /* \"#utility.yul\":1590:1591   */\n      0x00\n        /* \"#utility.yul\":1583:1595   */\n      revert\n        /* \"#utility.yul\":1526:1597   */\n    tag_140:\n        /* \"#utility.yul\":1465:1603   */\n      pop\n      jump\t// out\n        /* \"#utility.yul\":1609:1764   */\n    tag_73:\n        /* \"#utility.yul\":1663:1668   */\n      0x00\n        /* \"#utility.yul\":1701:1707   */\n      dup2\n        /* \"#utility.yul\":1688:1708   */\n      calldataload\n        /* \"#utility.yul\":1679:1708   */\n      swap1\n      pop\n        /* \"#utility.yul\":1717:1758   */\n      tag_142\n        /* \"#utility.yul\":1752:1757   */\n      dup2\n        /* \"#utility.yul\":1717:1758   */\n      tag_72\n      jump\t// in\n    tag_142:\n        /* \"#utility.yul\":1609:1764   */\n      swap3\n      swap2\n      pop\n      pop\n      jump\t// out\n        /* \"#utility.yul\":1770:1887   */\n    tag_74:\n        /* \"#utility.yul\":1879:1880   */\n      0x00\n        /* \"#utility.yul\":1876:1877   */\n      0x00\n        /* \"#utility.yul\":1869:1881   */\n      revert\n        /* \"#utility.yul\":1893:2010   */\n    tag_75:\n        /* \"#utility.yul\":2002:2003   */\n      0x00\n        /* \"#utility.yul\":1999:2000   */\n      0x00\n        /* \"#utility.yul\":1992:2004   */\n      revert\n        /* \"#utility.yul\":2016:2118   */\n    tag_76:\n        /* \"#utility.yul\":2057:2063   */\n      0x00\n        /* \"#utility.yul\":2108:2110   */\n      0x1f\n        /* \"#utility.yul\":2104:2111   */\n      not\n        /* \"#utility.yul\":2099:2101   */\n      0x1f\n        /* \"#utility.yul\":2092:2097   */\n      dup4\n        /* \"#utility.yul\":2088:2102   */\n      add\n        /* \"#utility.yul\":2084:2112   */\n      and\n        /* \"#utility.yul\":2074:2112   */\n      swap1\n      pop\n        /* \"#utility.yul\":2016:2118   */\n      swap2\n      swap1\n      pop\n      jump\t// out\n        /* \"#utility.yul\":2124:2304   */\n    tag_77:\n        /* \"#utility.yul\":2172:2249   */\n      0x4e487b7100000000000000000000000000000000000000000000000000000000\n        /* \"#utility.yul\":2169:2170   */\n      0x00\n        /* \"#utility.yul\":2162:2250   */\n      mstore\n        /* \"#utility.yul\":2269:2273   */\n      0x41\n        /* \"#utility.yul\":2266:2267   */\n      0x04\n        /* \"#utility.yul\":2259:2274   */\n      mstore\n        /* \"#utility.yul\":2293:2297   */\n      0x24\n        /* \"#utility.yul\":2290:2291   */\n      0x00\n        /* \"#utility.yul\":2283:2298   */\n      revert\n        /* \"#utility.yul\":2310:2591   */\n    tag_78:\n        /* \"#utility.yul\":2393:2420   */\n      tag_148\n        /* \"#utility.yul\":2415:2419   */\n      dup3\n        /* \"#utility.yul\":2393:2420   */\n      tag_76\n      jump\t// in\n    tag_148:\n        /* \"#utility.yul\":2385:2391   */\n      dup2\n        /* \"#utility.yul\":2381:2421   */\n      add\n        /* \"#utility.yul\":2523:2529   */\n      dup2\n        /* \"#utility.yul\":2511:2521   */\n      dup2\n        /* \"#utility.yul\":2508:2530   */\n      lt\n        /* \"#utility.yul\":2487:2505   */\n      0xffffffffffffffff\n        /* \"#utility.yul\":2475:2485   */\n      dup3\n        /* \"#utility.yul\":2472:2506   */\n      gt\n        /* \"#utility.yul\":2469:2531   */\n      or\n        /* \"#utility.yul\":2466:2554   */\n      iszero\n      tag_149\n      jumpi\n        /* \"#utility.yul\":2534:2552   */\n      tag_150\n      tag_77\n      jump\t// in\n    tag_150:\n        /* \"#utility.yul\":2466:2554   */\n    tag_149:\n        /* \"#utility.yul\":2574:2584   */\n      dup1\n        /* \"#utility.yul\":2570:2572   */\n      0x40\n        /* \"#utility.yul\":2563:2585   */\n      mstore\n        /* \"#utility.yul\":2353:2591   */\n      pop\n        /* \"#utility.yul\":2310:2591   */\n      pop\n      pop\n      jump\t// out\n        /* \"#utility.yul\":2597:2726   */\n    tag_79:\n        /* \"#utility.yul\":2631:2637   */\n      0x00\n        /* \"#utility.yul\":2658:2678   */\n      tag_152\n      tag_68\n      jump\t// in\n    tag_152:\n        /* \"#utility.yul\":2648:2678   */\n      swap1\n      pop\n        /* \"#utility.yul\":2687:2720   */\n      tag_153\n        /* \"#utility.yul\":2715:2719   */\n      dup3\n        /* \"#utility.yul\":2707:2713   */\n      dup3\n        /* \"#utility.yul\":2687:2720   */\n      tag_78\n      jump\t// in\n    tag_153:\n        /* \"#utility.yul\":2597:2726   */\n      swap2\n      swap1\n      pop\n      jump\t// out\n        /* \"#utility.yul\":2732:3040   */\n    tag_80:\n        /* \"#utility.yul\":2794:2798   */\n      0x00\n        /* \"#utility.yul\":2884:2902   */\n      0xffffffffffffffff\n        /* \"#utility.yul\":2876:2882   */\n      dup3\n        /* \"#utility.yul\":2873:2903   */\n      gt\n        /* \"#utility.yul\":2870:2926   */\n      iszero\n      tag_155\n      jumpi\n        /* \"#utility.yul\":2906:2924   */\n      tag_156\n      tag_77\n      jump\t// in\n    tag_156:\n        /* \"#utility.yul\":2870:2926   */\n    tag_155:\n        /* \"#utility.yul\":2944:2973   */\n      tag_157\n        /* \"#utility.yul\":2966:2972   */\n      dup3\n        /* \"#utility.yul\":2944:2973   */\n      tag_76\n      jump\t// in\n    tag_157:\n        /* \"#utility.yul\":2936:2973   */\n      swap1\n      pop\n        /* \"#utility.yul\":3028:3032   */\n      0x20\n        /* \"#utility.yul\":3022:3026   */\n      dup2\n        /* \"#utility.yul\":3018:3033   */\n      add\n        /* \"#utility.yul\":3010:3033   */\n      swap1\n      pop\n        /* \"#utility.yul\":2732:3040   */\n      swap2\n      swap1\n      pop\n      jump\t// out\n        /* \"#utility.yul\":3046:3194   */\n    tag_81:\n        /* \"#utility.yul\":3144:3150   */\n      dup3\n        /* \"#utility.yul\":3139:3142   */\n      dup2\n        /* \"#utility.yul\":3134:3137   */\n      dup4\n        /* \"#utility.yul\":3121:3151   */\n      calldatacopy\n        /* \"#utility.yul\":3185:3186   */\n      0x00\n        /* \"#utility.yul\":3176:3182   */\n      dup4\n        /* \"#utility.yul\":3171:3174   */\n      dup4\n        /* \"#utility.yul\":3167:3183   */\n      add\n        /* \"#utility.yul\":3160:3187   */\n      mstore\n        /* \"#utility.yul\":3046:3194   */\n      pop\n      pop\n      pop\n      jump\t// out\n        /* \"#utility.yul\":3200:3625   */\n    tag_82:\n        /* \"#utility.yul\":3278:3283   */\n      0x00\n        /* \"#utility.yul\":3303:3369   */\n      tag_160\n        /* \"#utility.yul\":3319:3368   */\n      tag_161\n        /* \"#utility.yul\":3361:3367   */\n      dup5\n        /* \"#utility.yul\":3319:3368   */\n      tag_80\n      jump\t// in\n    tag_161:\n        /* \"#utility.yul\":3303:3369   */\n      tag_79\n      jump\t// in\n    tag_160:\n        /* \"#utility.yul\":3294:3369   */\n      swap1\n      pop\n        /* \"#utility.yul\":3392:3398   */\n      dup3\n        /* \"#utility.yul\":3385:3390   */\n      dup2\n        /* \"#utility.yul\":3378:3399   */\n      mstore\n        /* \"#utility.yul\":3430:3434   */\n      0x20\n        /* \"#utility.yul\":3423:3428   */\n      dup2\n        /* \"#utility.yul\":3419:3435   */\n      add\n        /* \"#utility.yul\":3468:3471   */\n      dup5\n        /* \"#utility.yul\":3459:3465   */\n      dup5\n        /* \"#utility.yul\":3454:3457   */\n      dup5\n        /* \"#utility.yul\":3450:3466   */\n      add\n        /* \"#utility.yul\":3447:3472   */\n      gt\n        /* \"#utility.yul\":3444:3556   */\n      iszero\n      tag_162\n      jumpi\n        /* \"#utility.yul\":3475:3554   */\n      tag_163\n      tag_75\n      jump\t// in\n    tag_163:\n        /* \"#utility.yul\":3444:3556   */\n    tag_162:\n        /* \"#utility.yul\":3565:3619   */\n      tag_164\n        /* \"#utility.yul\":3612:3618   */\n      dup5\n        /* \"#utility.yul\":3607:3610   */\n      dup3\n        /* \"#utility.yul\":3602:3605   */\n      dup6\n        /* \"#utility.yul\":3565:3619   */\n      tag_81\n      jump\t// in\n    tag_164:\n        /* \"#utility.yul\":3284:3625   */\n      pop\n        /* \"#utility.yul\":3200:3625   */\n      swap4\n      swap3\n      pop\n      pop\n      pop\n      jump\t// out\n        /* \"#utility.yul\":3645:3985   */\n    tag_83:\n        /* \"#utility.yul\":3701:3706   */\n      0x00\n        /* \"#utility.yul\":3750:3753   */\n      dup3\n        /* \"#utility.yul\":3743:3747   */\n      0x1f\n        /* \"#utility.yul\":3735:3741   */\n      dup4\n        /* \"#utility.yul\":3731:3748   */\n      add\n        /* \"#utility.yul\":3727:3754   */\n      slt\n        /* \"#utility.yul\":3717:3839   */\n      tag_166\n      jumpi\n        /* \"#utility.yul\":3758:3837   */\n      tag_167\n      tag_74\n      jump\t// in\n    tag_167:\n        /* \"#utility.yul\":3717:3839   */\n    tag_166:\n        /* \"#utility.yul\":3875:3881   */\n      dup2\n        /* \"#utility.yul\":3862:3882   */\n      calldataload\n        /* \"#utility.yul\":3900:3979   */\n      tag_168\n        /* \"#utility.yul\":3975:3978   */\n      dup5\n        /* \"#utility.yul\":3967:3973   */\n      dup3\n        /* \"#utility.yul\":3960:3964   */\n      0x20\n        /* \"#utility.yul\":3952:3958   */\n      dup7\n        /* \"#utility.yul\":3948:3965   */\n      add\n        /* \"#utility.yul\":3900:3979   */\n      tag_82\n      jump\t// in\n    tag_168:\n        /* \"#utility.yul\":3891:3979   */\n      swap2\n      pop\n        /* \"#utility.yul\":3707:3985   */\n      pop\n        /* \"#utility.yul\":3645:3985   */\n      swap3\n      swap2\n      pop\n      pop\n      jump\t// out\n        /* \"#utility.yul\":3991:4113   */\n    tag_84:\n        /* \"#utility.yul\":4064:4088   */\n      tag_170\n        /* \"#utility.yul\":4082:4087   */\n      dup2\n        /* \"#utility.yul\":4064:4088   */\n      tag_63\n      jump\t// in\n    tag_170:\n        /* \"#utility.yul\":4057:4062   */\n      dup2\n        /* \"#utility.yul\":4054:4089   */\n      eq\n        /* \"#utility.yul\":4044:4107   */\n      tag_171\n      jumpi\n        /* \"#utility.yul\":4103:4104   */\n      0x00\n        /* \"#utility.yul\":4100:4101   */\n      0x00\n        /* \"#utility.yul\":4093:4105   */\n      revert\n        /* \"#utility.yul\":4044:4107   */\n    tag_171:\n        /* \"#utility.yul\":3991:4113   */\n      pop\n      jump\t// out\n        /* \"#utility.yul\":4119:4258   */\n    tag_85:\n        /* \"#utility.yul\":4165:4170   */\n      0x00\n        /* \"#utility.yul\":4203:4209   */\n      dup2\n        /* \"#utility.yul\":4190:4210   */\n      calldataload\n        /* \"#utility.yul\":4181:4210   */\n      swap1\n      pop\n        /* \"#utility.yul\":4219:4252   */\n      tag_173\n        /* \"#utility.yul\":4246:4251   */\n      dup2\n        /* \"#utility.yul\":4219:4252   */\n      tag_84\n      jump\t// in\n    tag_173:\n        /* \"#utility.yul\":4119:4258   */\n      swap3\n      swap2\n      pop\n      pop\n      jump\t// out\n        /* \"#utility.yul\":4264:5079   */\n    tag_23:\n        /* \"#utility.yul\":4359:4365   */\n      0x00\n        /* \"#utility.yul\":4367:4373   */\n      0x00\n        /* \"#utility.yul\":4375:4381   */\n      0x00\n        /* \"#utility.yul\":4424:4426   */\n      0x60\n        /* \"#utility.yul\":4412:4421   */\n      dup5\n        /* \"#utility.yul\":4403:4410   */\n      dup7\n        /* \"#utility.yul\":4399:4422   */\n      sub\n        /* \"#utility.yul\":4395:4427   */\n      slt\n        /* \"#utility.yul\":4392:4511   */\n      iszero\n      tag_175\n      jumpi\n        /* \"#utility.yul\":4430:4509   */\n      tag_176\n      tag_69\n      jump\t// in\n    tag_176:\n        /* \"#utility.yul\":4392:4511   */\n    tag_175:\n        /* \"#utility.yul\":4550:4551   */\n      0x00\n        /* \"#utility.yul\":4575:4636   */\n      tag_177\n        /* \"#utility.yul\":4628:4635   */\n      dup7\n        /* \"#utility.yul\":4619:4625   */\n      dup3\n        /* \"#utility.yul\":4608:4617   */\n      dup8\n        /* \"#utility.yul\":4604:4626   */\n      add\n        /* \"#utility.yul\":4575:4636   */\n      tag_73\n      jump\t// in\n    tag_177:\n        /* \"#utility.yul\":4565:4636   */\n      swap4\n      pop\n        /* \"#utility.yul\":4521:4646   */\n      pop\n        /* \"#utility.yul\":4713:4715   */\n      0x20\n        /* \"#utility.yul\":4702:4711   */\n      dup5\n        /* \"#utility.yul\":4698:4716   */\n      add\n        /* \"#utility.yul\":4685:4717   */\n      calldataload\n        /* \"#utility.yul\":4744:4762   */\n      0xffffffffffffffff\n        /* \"#utility.yul\":4736:4742   */\n      dup2\n        /* \"#utility.yul\":4733:4763   */\n      gt\n        /* \"#utility.yul\":4730:4847   */\n      iszero\n      tag_178\n      jumpi\n        /* \"#utility.yul\":4766:4845   */\n      tag_179\n      tag_70\n      jump\t// in\n    tag_179:\n        /* \"#utility.yul\":4730:4847   */\n    tag_178:\n        /* \"#utility.yul\":4871:4934   */\n      tag_180\n        /* \"#utility.yul\":4926:4933   */\n      dup7\n        /* \"#utility.yul\":4917:4923   */\n      dup3\n        /* \"#utility.yul\":4906:4915   */\n      dup8\n        /* \"#utility.yul\":4902:4924   */\n      add\n        /* \"#utility.yul\":4871:4934   */\n      tag_83\n      jump\t// in\n    tag_180:\n        /* \"#utility.yul\":4861:4934   */\n      swap3\n      pop\n        /* \"#utility.yul\":4656:4944   */\n      pop\n        /* \"#utility.yul\":4983:4985   */\n      0x40\n        /* \"#utility.yul\":5009:5062   */\n      tag_181\n        /* \"#utility.yul\":5054:5061   */\n      dup7\n        /* \"#utility.yul\":5045:5051   */\n      dup3\n        /* \"#utility.yul\":5034:5043   */\n      dup8\n        /* \"#utility.yul\":5030:5052   */\n      add\n        /* \"#utility.yul\":5009:5062   */\n      tag_85\n      jump\t// in\n    tag_181:\n        /* \"#utility.yul\":4999:5062   */\n      swap2\n      pop\n        /* \"#utility.yul\":4954:5072   */\n      pop\n        /* \"#utility.yul\":4264:5079   */\n      swap3\n      pop\n      swap3\n      pop\n      swap3\n      jump\t// out\n        /* \"#utility.yul\":5085:5223   */\n    tag_86:\n        /* \"#utility.yul\":5176:5182   */\n      0x00\n        /* \"#utility.yul\":5210:5215   */\n      dup2\n        /* \"#utility.yul\":5204:5216   */\n      mload\n        /* \"#utility.yul\":5194:5216   */\n      swap1\n      pop\n        /* \"#utility.yul\":5085:5223   */\n      swap2\n      swap1\n      pop\n      jump\t// out\n        /* \"#utility.yul\":5229:5437   */\n    tag_87:\n        /* \"#utility.yul\":5352:5363   */\n      0x00\n        /* \"#utility.yul\":5386:5392   */\n      dup3\n        /* \"#utility.yul\":5381:5384   */\n      dup3\n        /* \"#utility.yul\":5374:5393   */\n      mstore\n        /* \"#utility.yul\":5426:5430   */\n      0x20\n        /* \"#utility.yul\":5421:5424   */\n      dup3\n        /* \"#utility.yul\":5417:5431   */\n      add\n        /* \"#utility.yul\":5402:5431   */\n      swap1\n      pop\n        /* \"#utility.yul\":5229:5437   */\n      swap3\n      swap2\n      pop\n      pop\n      jump\t// out\n        /* \"#utility.yul\":5443:5599   */\n    tag_88:\n        /* \"#utility.yul\":5534:5538   */\n      0x00\n        /* \"#utility.yul\":5557:5560   */\n      dup2\n        /* \"#utility.yul\":5549:5560   */\n      swap1\n      pop\n        /* \"#utility.yul\":5587:5591   */\n      0x20\n        /* \"#utility.yul\":5582:5585   */\n      dup3\n        /* \"#utility.yul\":5578:5592   */\n      add\n        /* \"#utility.yul\":5570:5592   */\n      swap1\n      pop\n        /* \"#utility.yul\":5443:5599   */\n      swap2\n      swap1\n      pop\n      jump\t// out\n        /* \"#utility.yul\":5605:5737   */\n    tag_89:\n        /* \"#utility.yul\":5698:5730   */\n      tag_186\n        /* \"#utility.yul\":5724:5729   */\n      dup2\n        /* \"#utility.yul\":5698:5730   */\n      tag_71\n      jump\t// in\n    tag_186:\n        /* \"#utility.yul\":5693:5696   */\n      dup3\n        /* \"#utility.yul\":5686:5731   */\n      mstore\n        /* \"#utility.yul\":5605:5737   */\n      pop\n      pop\n      jump\t// out\n        /* \"#utility.yul\":5743:5842   */\n    tag_90:\n        /* \"#utility.yul\":5795:5801   */\n      0x00\n        /* \"#utility.yul\":5829:5834   */\n      dup2\n        /* \"#utility.yul\":5823:5835   */\n      mload\n        /* \"#utility.yul\":5813:5835   */\n      swap1\n      pop\n        /* \"#utility.yul\":5743:5842   */\n      swap2\n      swap1\n      pop\n      jump\t// out\n        /* \"#utility.yul\":5848:6007   */\n    tag_91:\n        /* \"#utility.yul\":5922:5933   */\n      0x00\n        /* \"#utility.yul\":5956:5962   */\n      dup3\n        /* \"#utility.yul\":5951:5954   */\n      dup3\n        /* \"#utility.yul\":5944:5963   */\n      mstore\n        /* \"#utility.yul\":5996:6000   */\n      0x20\n        /* \"#utility.yul\":5991:5994   */\n      dup3\n        /* \"#utility.yul\":5987:6001   */\n      add\n        /* \"#utility.yul\":5972:6001   */\n      swap1\n      pop\n        /* \"#utility.yul\":5848:6007   */\n      swap3\n      swap2\n      pop\n      pop\n      jump\t// out\n        /* \"#utility.yul\":6013:6152   */\n    tag_92:\n        /* \"#utility.yul\":6102:6108   */\n      dup3\n        /* \"#utility.yul\":6097:6100   */\n      dup2\n        /* \"#utility.yul\":6092:6095   */\n      dup4\n        /* \"#utility.yul\":6086:6109   */\n      mcopy\n        /* \"#utility.yul\":6143:6144   */\n      0x00\n        /* \"#utility.yul\":6134:6140   */\n      dup4\n        /* \"#utility.yul\":6129:6132   */\n      dup4\n        /* \"#utility.yul\":6125:6141   */\n      add\n        /* \"#utility.yul\":6118:6145   */\n      mstore\n        /* \"#utility.yul\":6013:6152   */\n      pop\n      pop\n      pop\n      jump\t// out\n        /* \"#utility.yul\":6158:6515   */\n    tag_93:\n        /* \"#utility.yul\":6236:6239   */\n      0x00\n        /* \"#utility.yul\":6264:6303   */\n      tag_191\n        /* \"#utility.yul\":6297:6302   */\n      dup3\n        /* \"#utility.yul\":6264:6303   */\n      tag_90\n      jump\t// in\n    tag_191:\n        /* \"#utility.yul\":6319:6380   */\n      tag_192\n        /* \"#utility.yul\":6373:6379   */\n      dup2\n        /* \"#utility.yul\":6368:6371   */\n      dup6\n        /* \"#utility.yul\":6319:6380   */\n      tag_91\n      jump\t// in\n    tag_192:\n        /* \"#utility.yul\":6312:6380   */\n      swap4\n      pop\n        /* \"#utility.yul\":6389:6454   */\n      tag_193\n        /* \"#utility.yul\":6447:6453   */\n      dup2\n        /* \"#utility.yul\":6442:6445   */\n      dup6\n        /* \"#utility.yul\":6435:6439   */\n      0x20\n        /* \"#utility.yul\":6428:6433   */\n      dup7\n        /* \"#utility.yul\":6424:6440   */\n      add\n        /* \"#utility.yul\":6389:6454   */\n      tag_92\n      jump\t// in\n    tag_193:\n        /* \"#utility.yul\":6479:6508   */\n      tag_194\n        /* \"#utility.yul\":6501:6507   */\n      dup2\n        /* \"#utility.yul\":6479:6508   */\n      tag_76\n      jump\t// in\n    tag_194:\n        /* \"#utility.yul\":6474:6477   */\n      dup5\n        /* \"#utility.yul\":6470:6509   */\n      add\n        /* \"#utility.yul\":6463:6509   */\n      swap2\n      pop\n        /* \"#utility.yul\":6240:6515   */\n      pop\n        /* \"#utility.yul\":6158:6515   */\n      swap3\n      swap2\n      pop\n      pop\n      jump\t// out\n        /* \"#utility.yul\":6521:6629   */\n    tag_94:\n        /* \"#utility.yul\":6598:6622   */\n      tag_196\n        /* \"#utility.yul\":6616:6621   */\n      dup2\n        /* \"#utility.yul\":6598:6622   */\n      tag_63\n      jump\t// in\n    tag_196:\n        /* \"#utility.yul\":6593:6596   */\n      dup3\n        /* \"#utility.yul\":6586:6623   */\n      mstore\n        /* \"#utility.yul\":6521:6629   */\n      pop\n      pop\n      jump\t// out\n        /* \"#utility.yul\":6687:7483   */\n    tag_95:\n        /* \"#utility.yul\":6794:6797   */\n      0x00\n        /* \"#utility.yul\":6830:6834   */\n      0x60\n        /* \"#utility.yul\":6825:6828   */\n      dup4\n        /* \"#utility.yul\":6821:6835   */\n      add\n        /* \"#utility.yul\":6926:6930   */\n      0x00\n        /* \"#utility.yul\":6919:6924   */\n      dup4\n        /* \"#utility.yul\":6915:6931   */\n      add\n        /* \"#utility.yul\":6909:6932   */\n      mload\n        /* \"#utility.yul\":6945:7024   */\n      tag_198\n        /* \"#utility.yul\":7018:7022   */\n      0x00\n        /* \"#utility.yul\":7013:7016   */\n      dup7\n        /* \"#utility.yul\":7009:7023   */\n      add\n        /* \"#utility.yul\":6995:7007   */\n      dup3\n        /* \"#utility.yul\":6945:7024   */\n      tag_89\n      jump\t// in\n    tag_198:\n        /* \"#utility.yul\":6845:7034   */\n      pop\n        /* \"#utility.yul\":7116:7120   */\n      0x20\n        /* \"#utility.yul\":7109:7114   */\n      dup4\n        /* \"#utility.yul\":7105:7121   */\n      add\n        /* \"#utility.yul\":7099:7122   */\n      mload\n        /* \"#utility.yul\":7169:7172   */\n      dup5\n        /* \"#utility.yul\":7163:7167   */\n      dup3\n        /* \"#utility.yul\":7159:7173   */\n      sub\n        /* \"#utility.yul\":7152:7156   */\n      0x20\n        /* \"#utility.yul\":7147:7150   */\n      dup7\n        /* \"#utility.yul\":7143:7157   */\n      add\n        /* \"#utility.yul\":7136:7174   */\n      mstore\n        /* \"#utility.yul\":7195:7268   */\n      tag_199\n        /* \"#utility.yul\":7263:7267   */\n      dup3\n        /* \"#utility.yul\":7249:7261   */\n      dup3\n        /* \"#utility.yul\":7195:7268   */\n      tag_93\n      jump\t// in\n    tag_199:\n        /* \"#utility.yul\":7187:7268   */\n      swap2\n      pop\n        /* \"#utility.yul\":7044:7279   */\n      pop\n        /* \"#utility.yul\":7364:7368   */\n      0x40\n        /* \"#utility.yul\":7357:7362   */\n      dup4\n        /* \"#utility.yul\":7353:7369   */\n      add\n        /* \"#utility.yul\":7347:7370   */\n      mload\n        /* \"#utility.yul\":7383:7446   */\n      tag_200\n        /* \"#utility.yul\":7440:7444   */\n      0x40\n        /* \"#utility.yul\":7435:7438   */\n      dup7\n        /* \"#utility.yul\":7431:7445   */\n      add\n        /* \"#utility.yul\":7417:7429   */\n      dup3\n        /* \"#utility.yul\":7383:7446   */\n      tag_94\n      jump\t// in\n    tag_200:\n        /* \"#utility.yul\":7289:7456   */\n      pop\n        /* \"#utility.yul\":7473:7477   */\n      dup1\n        /* \"#utility.yul\":7466:7477   */\n      swap2\n      pop\n        /* \"#utility.yul\":6799:7483   */\n      pop\n        /* \"#utility.yul\":6687:7483   */\n      swap3\n      swap2\n      pop\n      pop\n      jump\t// out\n        /* \"#utility.yul\":7489:7741   */\n    tag_96:\n        /* \"#utility.yul\":7606:7616   */\n      0x00\n        /* \"#utility.yul\":7641:7735   */\n      tag_202\n        /* \"#utility.yul\":7731:7734   */\n      dup4\n        /* \"#utility.yul\":7723:7729   */\n      dup4\n        /* \"#utility.yul\":7641:7735   */\n      tag_95\n      jump\t// in\n    tag_202:\n        /* \"#utility.yul\":7627:7735   */\n      swap1\n      pop\n        /* \"#utility.yul\":7489:7741   */\n      swap3\n      swap2\n      pop\n      pop\n      jump\t// out\n        /* \"#utility.yul\":7747:7884   */\n    tag_97:\n        /* \"#utility.yul\":7841:7845   */\n      0x00\n        /* \"#utility.yul\":7873:7877   */\n      0x20\n        /* \"#utility.yul\":7868:7871   */\n      dup3\n        /* \"#utility.yul\":7864:7878   */\n      add\n        /* \"#utility.yul\":7856:7878   */\n      swap1\n      pop\n        /* \"#utility.yul\":7747:7884   */\n      swap2\n      swap1\n      pop\n      jump\t// out\n        /* \"#utility.yul\":7946:9049   */\n    tag_98:\n        /* \"#utility.yul\":8113:8116   */\n      0x00\n        /* \"#utility.yul\":8142:8220   */\n      tag_205\n        /* \"#utility.yul\":8214:8219   */\n      dup3\n        /* \"#utility.yul\":8142:8220   */\n      tag_86\n      jump\t// in\n    tag_205:\n        /* \"#utility.yul\":8236:8346   */\n      tag_206\n        /* \"#utility.yul\":8339:8345   */\n      dup2\n        /* \"#utility.yul\":8334:8337   */\n      dup6\n        /* \"#utility.yul\":8236:8346   */\n      tag_87\n      jump\t// in\n    tag_206:\n        /* \"#utility.yul\":8229:8346   */\n      swap4\n      pop\n        /* \"#utility.yul\":8372:8375   */\n      dup4\n        /* \"#utility.yul\":8417:8421   */\n      0x20\n        /* \"#utility.yul\":8409:8415   */\n      dup3\n        /* \"#utility.yul\":8405:8422   */\n      mul\n        /* \"#utility.yul\":8400:8403   */\n      dup6\n        /* \"#utility.yul\":8396:8423   */\n      add\n        /* \"#utility.yul\":8447:8527   */\n      tag_207\n        /* \"#utility.yul\":8521:8526   */\n      dup6\n        /* \"#utility.yul\":8447:8527   */\n      tag_88\n      jump\t// in\n    tag_207:\n        /* \"#utility.yul\":8550:8557   */\n      dup1\n        /* \"#utility.yul\":8581:8582   */\n      0x00\n        /* \"#utility.yul\":8566:9004   */\n    tag_208:\n        /* \"#utility.yul\":8591:8597   */\n      dup6\n        /* \"#utility.yul\":8588:8589   */\n      dup2\n        /* \"#utility.yul\":8585:8598   */\n      lt\n        /* \"#utility.yul\":8566:9004   */\n      iszero\n      tag_210\n      jumpi\n        /* \"#utility.yul\":8662:8671   */\n      dup5\n        /* \"#utility.yul\":8656:8660   */\n      dup5\n        /* \"#utility.yul\":8652:8672   */\n      sub\n        /* \"#utility.yul\":8647:8650   */\n      dup10\n        /* \"#utility.yul\":8640:8673   */\n      mstore\n        /* \"#utility.yul\":8713:8719   */\n      dup2\n        /* \"#utility.yul\":8707:8720   */\n      mload\n        /* \"#utility.yul\":8741:8853   */\n      tag_211\n        /* \"#utility.yul\":8848:8852   */\n      dup6\n        /* \"#utility.yul\":8833:8846   */\n      dup3\n        /* \"#utility.yul\":8741:8853   */\n      tag_96\n      jump\t// in\n    tag_211:\n        /* \"#utility.yul\":8733:8853   */\n      swap5\n      pop\n        /* \"#utility.yul\":8876:8960   */\n      tag_212\n        /* \"#utility.yul\":8953:8959   */\n      dup4\n        /* \"#utility.yul\":8876:8960   */\n      tag_97\n      jump\t// in\n    tag_212:\n        /* \"#utility.yul\":8866:8960   */\n      swap3\n      pop\n        /* \"#utility.yul\":8989:8993   */\n      0x20\n        /* \"#utility.yul\":8984:8987   */\n      dup11\n        /* \"#utility.yul\":8980:8994   */\n      add\n        /* \"#utility.yul\":8973:8994   */\n      swap10\n      pop\n        /* \"#utility.yul\":8626:9004   */\n      pop\n        /* \"#utility.yul\":8613:8614   */\n      0x01\n        /* \"#utility.yul\":8610:8611   */\n      dup2\n        /* \"#utility.yul\":8606:8615   */\n      add\n        /* \"#utility.yul\":8601:8615   */\n      swap1\n      pop\n        /* \"#utility.yul\":8566:9004   */\n      jump(tag_208)\n    tag_210:\n        /* \"#utility.yul\":8570:8584   */\n      pop\n        /* \"#utility.yul\":9020:9024   */\n      dup3\n        /* \"#utility.yul\":9013:9024   */\n      swap8\n      pop\n        /* \"#utility.yul\":9040:9043   */\n      dup8\n        /* \"#utility.yul\":9033:9043   */\n      swap6\n      pop\n        /* \"#utility.yul\":8118:9049   */\n      pop\n      pop\n      pop\n      pop\n      pop\n        /* \"#utility.yul\":7946:9049   */\n      swap3\n      swap2\n      pop\n      pop\n      jump\t// out\n        /* \"#utility.yul\":9055:9524   */\n    tag_29:\n        /* \"#utility.yul\":9246:9250   */\n      0x00\n        /* \"#utility.yul\":9284:9286   */\n      0x20\n        /* \"#utility.yul\":9273:9282   */\n      dup3\n        /* \"#utility.yul\":9269:9287   */\n      add\n        /* \"#utility.yul\":9261:9287   */\n      swap1\n      pop\n        /* \"#utility.yul\":9333:9342   */\n      dup2\n        /* \"#utility.yul\":9327:9331   */\n      dup2\n        /* \"#utility.yul\":9323:9343   */\n      sub\n        /* \"#utility.yul\":9319:9320   */\n      0x00\n        /* \"#utility.yul\":9308:9317   */\n      dup4\n        /* \"#utility.yul\":9304:9321   */\n      add\n        /* \"#utility.yul\":9297:9344   */\n      mstore\n        /* \"#utility.yul\":9361:9517   */\n      tag_214\n        /* \"#utility.yul\":9512:9516   */\n      dup2\n        /* \"#utility.yul\":9503:9509   */\n      dup5\n        /* \"#utility.yul\":9361:9517   */\n      tag_98\n      jump\t// in\n    tag_214:\n        /* \"#utility.yul\":9353:9517   */\n      swap1\n      pop\n        /* \"#utility.yul\":9055:9524   */\n      swap3\n      swap2\n      pop\n      pop\n      jump\t// out\n        /* \"#utility.yul\":9530:9859   */\n    tag_33:\n        /* \"#utility.yul\":9589:9595   */\n      0x00\n        /* \"#utility.yul\":9638:9640   */\n      0x20\n        /* \"#utility.yul\":9626:9635   */\n      dup3\n        /* \"#utility.yul\":9617:9624   */\n      dup5\n        /* \"#utility.yul\":9613:9636   */\n      sub\n        /* \"#utility.yul\":9609:9641   */\n      slt\n        /* \"#utility.yul\":9606:9725   */\n      iszero\n      tag_216\n      jumpi\n        /* \"#utility.yul\":9644:9723   */\n      tag_217\n      tag_69\n      jump\t// in\n    tag_217:\n        /* \"#utility.yul\":9606:9725   */\n    tag_216:\n        /* \"#utility.yul\":9764:9765   */\n      0x00\n        /* \"#utility.yul\":9789:9842   */\n      tag_218\n        /* \"#utility.yul\":9834:9841   */\n      dup5\n        /* \"#utility.yul\":9825:9831   */\n      dup3\n        /* \"#utility.yul\":9814:9823   */\n      dup6\n        /* \"#utility.yul\":9810:9832   */\n      add\n        /* \"#utility.yul\":9789:9842   */\n      tag_85\n      jump\t// in\n    tag_218:\n        /* \"#utility.yul\":9779:9842   */\n      swap2\n      pop\n        /* \"#utility.yul\":9735:9852   */\n      pop\n        /* \"#utility.yul\":9530:9859   */\n      swap3\n      swap2\n      pop\n      pop\n      jump\t// out\n        /* \"#utility.yul\":9865:10007   */\n    tag_99:\n        /* \"#utility.yul\":9968:10000   */\n      tag_220\n        /* \"#utility.yul\":9994:9999   */\n      dup2\n        /* \"#utility.yul\":9968:10000   */\n      tag_71\n      jump\t// in\n    tag_220:\n        /* \"#utility.yul\":9963:9966   */\n      dup3\n        /* \"#utility.yul\":9956:10001   */\n      mstore\n        /* \"#utility.yul\":9865:10007   */\n      pop\n      pop\n      jump\t// out\n        /* \"#utility.yul\":10013:10182   */\n    tag_100:\n        /* \"#utility.yul\":10097:10108   */\n      0x00\n        /* \"#utility.yul\":10131:10137   */\n      dup3\n        /* \"#utility.yul\":10126:10129   */\n      dup3\n        /* \"#utility.yul\":10119:10138   */\n      mstore\n        /* \"#utility.yul\":10171:10175   */\n      0x20\n        /* \"#utility.yul\":10166:10169   */\n      dup3\n        /* \"#utility.yul\":10162:10176   */\n      add\n        /* \"#utility.yul\":10147:10176   */\n      swap1\n      pop\n        /* \"#utility.yul\":10013:10182   */\n      swap3\n      swap2\n      pop\n      pop\n      jump\t// out\n        /* \"#utility.yul\":10188:10565   */\n    tag_101:\n        /* \"#utility.yul\":10276:10279   */\n      0x00\n        /* \"#utility.yul\":10304:10343   */\n      tag_223\n        /* \"#utility.yul\":10337:10342   */\n      dup3\n        /* \"#utility.yul\":10304:10343   */\n      tag_90\n      jump\t// in\n    tag_223:\n        /* \"#utility.yul\":10359:10430   */\n      tag_224\n        /* \"#utility.yul\":10423:10429   */\n      dup2\n        /* \"#utility.yul\":10418:10421   */\n      dup6\n        /* \"#utility.yul\":10359:10430   */\n      tag_100\n      jump\t// in\n    tag_224:\n        /* \"#utility.yul\":10352:10430   */\n      swap4\n      pop\n        /* \"#utility.yul\":10439:10504   */\n      tag_225\n        /* \"#utility.yul\":10497:10503   */\n      dup2\n        /* \"#utility.yul\":10492:10495   */\n      dup6\n        /* \"#utility.yul\":10485:10489   */\n      0x20\n        /* \"#utility.yul\":10478:10483   */\n      dup7\n        /* \"#utility.yul\":10474:10490   */\n      add\n        /* \"#utility.yul\":10439:10504   */\n      tag_92\n      jump\t// in\n    tag_225:\n        /* \"#utility.yul\":10529:10558   */\n      tag_226\n        /* \"#utility.yul\":10551:10557   */\n      dup2\n        /* \"#utility.yul\":10529:10558   */\n      tag_76\n      jump\t// in\n    tag_226:\n        /* \"#utility.yul\":10524:10527   */\n      dup5\n        /* \"#utility.yul\":10520:10559   */\n      add\n        /* \"#utility.yul\":10513:10559   */\n      swap2\n      pop\n        /* \"#utility.yul\":10280:10565   */\n      pop\n        /* \"#utility.yul\":10188:10565   */\n      swap3\n      swap2\n      pop\n      pop\n      jump\t// out\n        /* \"#utility.yul\":10571:11136   */\n    tag_36:\n        /* \"#utility.yul\":10756:10760   */\n      0x00\n        /* \"#utility.yul\":10794:10796   */\n      0x60\n        /* \"#utility.yul\":10783:10792   */\n      dup3\n        /* \"#utility.yul\":10779:10797   */\n      add\n        /* \"#utility.yul\":10771:10797   */\n      swap1\n      pop\n        /* \"#utility.yul\":10807:10894   */\n      tag_228\n        /* \"#utility.yul\":10891:10892   */\n      0x00\n        /* \"#utility.yul\":10880:10889   */\n      dup4\n        /* \"#utility.yul\":10876:10893   */\n      add\n        /* \"#utility.yul\":10867:10873   */\n      dup7\n        /* \"#utility.yul\":10807:10894   */\n      tag_99\n      jump\t// in\n    tag_228:\n        /* \"#utility.yul\":10941:10950   */\n      dup2\n        /* \"#utility.yul\":10935:10939   */\n      dup2\n        /* \"#utility.yul\":10931:10951   */\n      sub\n        /* \"#utility.yul\":10926:10928   */\n      0x20\n        /* \"#utility.yul\":10915:10924   */\n      dup4\n        /* \"#utility.yul\":10911:10929   */\n      add\n        /* \"#utility.yul\":10904:10952   */\n      mstore\n        /* \"#utility.yul\":10969:11047   */\n      tag_229\n        /* \"#utility.yul\":11042:11046   */\n      dup2\n        /* \"#utility.yul\":11033:11039   */\n      dup6\n        /* \"#utility.yul\":10969:11047   */\n      tag_101\n      jump\t// in\n    tag_229:\n        /* \"#utility.yul\":10961:11047   */\n      swap1\n      pop\n        /* \"#utility.yul\":11057:11129   */\n      tag_230\n        /* \"#utility.yul\":11125:11127   */\n      0x40\n        /* \"#utility.yul\":11114:11123   */\n      dup4\n        /* \"#utility.yul\":11110:11128   */\n      add\n        /* \"#utility.yul\":11101:11107   */\n      dup5\n        /* \"#utility.yul\":11057:11129   */\n      tag_64\n      jump\t// in\n    tag_230:\n        /* \"#utility.yul\":10571:11136   */\n      swap5\n      swap4\n      pop\n      pop\n      pop\n      pop\n      jump\t// out\n        /* \"#utility.yul\":11142:11302   */\n    tag_102:\n        /* \"#utility.yul\":11282:11294   */\n      0x4f6e6c79206f776e657200000000000000000000000000000000000000000000\n        /* \"#utility.yul\":11278:11279   */\n      0x00\n        /* \"#utility.yul\":11270:11276   */\n      dup3\n        /* \"#utility.yul\":11266:11280   */\n      add\n        /* \"#utility.yul\":11259:11295   */\n      mstore\n        /* \"#utility.yul\":11142:11302   */\n      pop\n      jump\t// out\n        /* \"#utility.yul\":11308:11674   */\n    tag_103:\n        /* \"#utility.yul\":11450:11453   */\n      0x00\n        /* \"#utility.yul\":11471:11538   */\n      tag_233\n        /* \"#utility.yul\":11535:11537   */\n      0x0a\n        /* \"#utility.yul\":11530:11533   */\n      dup4\n        /* \"#utility.yul\":11471:11538   */\n      tag_100\n      jump\t// in\n    tag_233:\n        /* \"#utility.yul\":11464:11538   */\n      swap2\n      pop\n        /* \"#utility.yul\":11547:11640   */\n      tag_234\n        /* \"#utility.yul\":11636:11639   */\n      dup3\n        /* \"#utility.yul\":11547:11640   */\n      tag_102\n      jump\t// in\n    tag_234:\n        /* \"#utility.yul\":11665:11667   */\n      0x20\n        /* \"#utility.yul\":11660:11663   */\n      dup3\n        /* \"#utility.yul\":11656:11668   */\n      add\n        /* \"#utility.yul\":11649:11668   */\n      swap1\n      pop\n        /* \"#utility.yul\":11308:11674   */\n      swap2\n      swap1\n      pop\n      jump\t// out\n        /* \"#utility.yul\":11680:12099   */\n    tag_42:\n        /* \"#utility.yul\":11846:11850   */\n      0x00\n        /* \"#utility.yul\":11884:11886   */\n      0x20\n        /* \"#utility.yul\":11873:11882   */\n      dup3\n        /* \"#utility.yul\":11869:11887   */\n      add\n        /* \"#utility.yul\":11861:11887   */\n      swap1\n      pop\n        /* \"#utility.yul\":11933:11942   */\n      dup2\n        /* \"#utility.yul\":11927:11931   */\n      dup2\n        /* \"#utility.yul\":11923:11943   */\n      sub\n        /* \"#utility.yul\":11919:11920   */\n      0x00\n        /* \"#utility.yul\":11908:11917   */\n      dup4\n        /* \"#utility.yul\":11904:11921   */\n      add\n        /* \"#utility.yul\":11897:11944   */\n      mstore\n        /* \"#utility.yul\":11961:12092   */\n      tag_236\n        /* \"#utility.yul\":12087:12091   */\n      dup2\n        /* \"#utility.yul\":11961:12092   */\n      tag_103\n      jump\t// in\n    tag_236:\n        /* \"#utility.yul\":11953:12092   */\n      swap1\n      pop\n        /* \"#utility.yul\":11680:12099   */\n      swap2\n      swap1\n      pop\n      jump\t// out\n        /* \"#utility.yul\":12105:12285   */\n    tag_104:\n        /* \"#utility.yul\":12153:12230   */\n      0x4e487b7100000000000000000000000000000000000000000000000000000000\n        /* \"#utility.yul\":12150:12151   */\n      0x00\n        /* \"#utility.yul\":12143:12231   */\n      mstore\n        /* \"#utility.yul\":12250:12254   */\n      0x22\n        /* \"#utility.yul\":12247:12248   */\n      0x04\n        /* \"#utility.yul\":12240:12255   */\n      mstore\n        /* \"#utility.yul\":12274:12278   */\n      0x24\n        /* \"#utility.yul\":12271:12272   */\n      0x00\n        /* \"#utility.yul\":12264:12279   */\n      revert\n        /* \"#utility.yul\":12291:12611   */\n    tag_51:\n        /* \"#utility.yul\":12335:12341   */\n      0x00\n        /* \"#utility.yul\":12372:12373   */\n      0x02\n        /* \"#utility.yul\":12366:12370   */\n      dup3\n        /* \"#utility.yul\":12362:12374   */\n      div\n        /* \"#utility.yul\":12352:12374   */\n      swap1\n      pop\n        /* \"#utility.yul\":12419:12420   */\n      0x01\n        /* \"#utility.yul\":12413:12417   */\n      dup3\n        /* \"#utility.yul\":12409:12421   */\n      and\n        /* \"#utility.yul\":12440:12458   */\n      dup1\n        /* \"#utility.yul\":12430:12511   */\n      tag_239\n      jumpi\n        /* \"#utility.yul\":12496:12500   */\n      0x7f\n        /* \"#utility.yul\":12488:12494   */\n      dup3\n        /* \"#utility.yul\":12484:12501   */\n      and\n        /* \"#utility.yul\":12474:12501   */\n      swap2\n      pop\n        /* \"#utility.yul\":12430:12511   */\n    tag_239:\n        /* \"#utility.yul\":12558:12560   */\n      0x20\n        /* \"#utility.yul\":12550:12556   */\n      dup3\n        /* \"#utility.yul\":12547:12561   */\n      lt\n        /* \"#utility.yul\":12527:12545   */\n      dup2\n        /* \"#utility.yul\":12524:12562   */\n      sub\n        /* \"#utility.yul\":12521:12605   */\n      tag_240\n      jumpi\n        /* \"#utility.yul\":12577:12595   */\n      tag_241\n      tag_104\n      jump\t// in\n    tag_241:\n        /* \"#utility.yul\":12521:12605   */\n    tag_240:\n        /* \"#utility.yul\":12342:12611   */\n      pop\n        /* \"#utility.yul\":12291:12611   */\n      swap2\n      swap1\n      pop\n      jump\t// out\n        /* \"#utility.yul\":12617:12758   */\n    tag_105:\n        /* \"#utility.yul\":12666:12670   */\n      0x00\n        /* \"#utility.yul\":12689:12692   */\n      dup2\n        /* \"#utility.yul\":12681:12692   */\n      swap1\n      pop\n        /* \"#utility.yul\":12712:12715   */\n      dup2\n        /* \"#utility.yul\":12709:12710   */\n      0x00\n        /* \"#utility.yul\":12702:12716   */\n      mstore\n        /* \"#utility.yul\":12746:12750   */\n      0x20\n        /* \"#utility.yul\":12743:12744   */\n      0x00\n        /* \"#utility.yul\":12733:12751   */\n      keccak256\n        /* \"#utility.yul\":12725:12751   */\n      swap1\n      pop\n        /* \"#utility.yul\":12617:12758   */\n      swap2\n      swap1\n      pop\n      jump\t// out\n        /* \"#utility.yul\":12764:12857   */\n    tag_106:\n        /* \"#utility.yul\":12801:12807   */\n      0x00\n        /* \"#utility.yul\":12848:12850   */\n      0x20\n        /* \"#utility.yul\":12843:12845   */\n      0x1f\n        /* \"#utility.yul\":12836:12841   */\n      dup4\n        /* \"#utility.yul\":12832:12846   */\n      add\n        /* \"#utility.yul\":12828:12851   */\n      div\n        /* \"#utility.yul\":12818:12851   */\n      swap1\n      pop\n        /* \"#utility.yul\":12764:12857   */\n      swap2\n      swap1\n      pop\n      jump\t// out\n        /* \"#utility.yul\":12863:12970   */\n    tag_107:\n        /* \"#utility.yul\":12907:12915   */\n      0x00\n        /* \"#utility.yul\":12957:12962   */\n      dup3\n        /* \"#utility.yul\":12951:12955   */\n      dup3\n        /* \"#utility.yul\":12947:12963   */\n      shl\n        /* \"#utility.yul\":12926:12963   */\n      swap1\n      pop\n        /* \"#utility.yul\":12863:12970   */\n      swap3\n      swap2\n      pop\n      pop\n      jump\t// out\n        /* \"#utility.yul\":12976:13369   */\n    tag_108:\n        /* \"#utility.yul\":13045:13051   */\n      0x00\n        /* \"#utility.yul\":13095:13096   */\n      0x08\n        /* \"#utility.yul\":13083:13093   */\n      dup4\n        /* \"#utility.yul\":13079:13097   */\n      mul\n        /* \"#utility.yul\":13118:13215   */\n      tag_246\n        /* \"#utility.yul\":13148:13214   */\n      0xffffffffffffffffffffffffffffffffffffffffffffffffffffffffffffffff\n        /* \"#utility.yul\":13137:13146   */\n      dup3\n        /* \"#utility.yul\":13118:13215   */\n      tag_107\n      jump\t// in\n    tag_246:\n        /* \"#utility.yul\":13236:13275   */\n      tag_247\n        /* \"#utility.yul\":13266:13274   */\n      dup7\n        /* \"#utility.yul\":13255:13264   */\n      dup4\n        /* \"#utility.yul\":13236:13275   */\n      tag_107\n      jump\t// in\n    tag_247:\n        /* \"#utility.yul\":13224:13275   */\n      swap6\n      pop\n        /* \"#utility.yul\":13308:13312   */\n      dup1\n        /* \"#utility.yul\":13304:13313   */\n      not\n        /* \"#utility.yul\":13297:13302   */\n      dup5\n        /* \"#utility.yul\":13293:13314   */\n      and\n        /* \"#utility.yul\":13284:13314   */\n      swap4\n      pop\n        /* \"#utility.yul\":13357:13361   */\n      dup1\n        /* \"#utility.yul\":13347:13355   */\n      dup7\n        /* \"#utility.yul\":13343:13362   */\n      and\n        /* \"#utility.yul\":13336:13341   */\n      dup5\n        /* \"#utility.yul\":13333:13363   */\n      or\n        /* \"#utility.yul\":13323:13363   */\n      swap3\n      pop\n        /* \"#utility.yul\":13052:13369   */\n      pop\n      pop\n        /* \"#utility.yul\":12976:13369   */\n      swap4\n      swap3\n      pop\n      pop\n      pop\n      jump\t// out\n        /* \"#utility.yul\":13375:13435   */\n    tag_109:\n        /* \"#utility.yul\":13403:13406   */\n      0x00\n        /* \"#utility.yul\":13424:13429   */\n      dup2\n        /* \"#utility.yul\":13417:13429   */\n      swap1\n      pop\n        /* \"#utility.yul\":13375:13435   */\n      swap2\n      swap1\n      pop\n      jump\t// out\n        /* \"#utility.yul\":13441:13583   */\n    tag_110:\n        /* \"#utility.yul\":13491:13500   */\n      0x00\n        /* \"#utility.yul\":13524:13577   */\n      tag_250\n        /* \"#utility.yul\":13542:13576   */\n      tag_251\n        /* \"#utility.yul\":13551:13575   */\n      tag_252\n        /* \"#utility.yul\":13569:13574   */\n      dup5\n        /* \"#utility.yul\":13551:13575   */\n      tag_63\n      jump\t// in\n    tag_252:\n        /* \"#utility.yul\":13542:13576   */\n      tag_109\n      jump\t// in\n    tag_251:\n        /* \"#utility.yul\":13524:13577   */\n      tag_63\n      jump\t// in\n    tag_250:\n        /* \"#utility.yul\":13511:13577   */\n      swap1\n      pop\n        /* \"#utility.yul\":13441:13583   */\n      swap2\n      swap1\n      pop\n      jump\t// out\n        /* \"#utility.yul\":13589:13664   */\n    tag_111:\n        /* \"#utility.yul\":13632:13635   */\n      0x00\n        /* \"#utility.yul\":13653:13658   */\n      dup2\n        /* \"#utility.yul\":13646:13658   */\n      swap1\n      pop\n        /* \"#utility.yul\":13589:13664   */\n      swap2\n      swap1\n      pop\n      jump\t// out\n        /* \"#utility.yul\":13670:13939   */\n    tag_112:\n        /* \"#utility.yul\":13780:13819   */\n      tag_255\n        /* \"#utility.yul\":13811:13818   */\n      dup4\n        /* \"#utility.yul\":13780:13819   */\n      tag_110\n      jump\t// in\n    tag_255:\n        /* \"#utility.yul\":13841:13932   */\n      tag_256\n        /* \"#utility.yul\":13890:13931   */\n      tag_257\n        /* \"#utility.yul\":13914:13930   */\n      dup3\n        /* \"#utility.yul\":13890:13931   */\n      tag_111\n      jump\t// in\n    tag_257:\n        /* \"#utility.yul\":13882:13888   */\n      dup5\n        /* \"#utility.yul\":13875:13879   */\n      dup5\n        /* \"#utility.yul\":13869:13880   */\n      sload\n        /* \"#utility.yul\":13841:13932   */\n      tag_108\n      jump\t// in\n    tag_256:\n        /* \"#utility.yul\":13835:13839   */\n      dup3\n        /* \"#utility.yul\":13828:13933   */\n      sstore\n        /* \"#utility.yul\":13746:13939   */\n      pop\n        /* \"#utility.yul\":13670:13939   */\n      pop\n      pop\n      pop\n      jump\t// out\n        /* \"#utility.yul\":13945:14018   */\n    tag_113:\n        /* \"#utility.yul\":13990:13993   */\n      0x00\n        /* \"#utility.yul\":14011:14012   */\n      0x00\n        /* \"#utility.yul\":14004:14012   */\n      swap1\n      pop\n        /* \"#utility.yul\":13945:14018   */\n      swap1\n      jump\t// out\n        /* \"#utility.yul\":14024:14213   */\n    tag_114:\n        /* \"#utility.yul\":14101:14133   */\n      tag_260\n      tag_113\n      jump\t// in\n    tag_260:\n        /* \"#utility.yul\":14142:14207   */\n      tag_261\n        /* \"#utility.yul\":14200:14206   */\n      dup2\n        /* \"#utility.yul\":14192:14198   */\n      dup5\n        /* \"#utility.yul\":14186:14190   */\n      dup5\n        /* \"#utility.yul\":14142:14207   */\n      tag_112\n      jump\t// in\n    tag_261:\n        /* \"#utility.yul\":14077:14213   */\n      pop\n        /* \"#utility.yul\":14024:14213   */\n      pop\n      pop\n      jump\t// out\n        /* \"#utility.yul\":14219:14405   */\n    tag_115:\n        /* \"#utility.yul\":14279:14399   */\n    tag_263:\n        /* \"#utility.yul\":14296:14299   */\n      dup2\n        /* \"#utility.yul\":14289:14294   */\n      dup2\n        /* \"#utility.yul\":14286:14300   */\n      lt\n        /* \"#utility.yul\":14279:14399   */\n      iszero\n      tag_265\n      jumpi\n        /* \"#utility.yul\":14350:14389   */\n      tag_266\n        /* \"#utility.yul\":14387:14388   */\n      0x00\n        /* \"#utility.yul\":14380:14385   */\n      dup3\n        /* \"#utility.yul\":14350:14389   */\n      tag_114\n      jump\t// in\n    tag_266:\n        /* \"#utility.yul\":14323:14324   */\n      0x01\n        /* \"#utility.yul\":14316:14321   */\n      dup2\n        /* \"#utility.yul\":14312:14325   */\n      add\n        /* \"#utility.yul\":14303:14325   */\n      swap1\n      pop\n        /* \"#utility.yul\":14279:14399   */\n      jump(tag_263)\n    tag_265:\n        /* \"#utility.yul\":14219:14405   */\n      pop\n      pop\n      jump\t// out\n        /* \"#utility.yul\":14411:14954   */\n    tag_116:\n        /* \"#utility.yul\":14512:14514   */\n      0x1f\n        /* \"#utility.yul\":14507:14510   */\n      dup3\n        /* \"#utility.yul\":14504:14515   */\n      gt\n        /* \"#utility.yul\":14501:14947   */\n      iszero\n      tag_268\n      jumpi\n        /* \"#utility.yul\":14546:14584   */\n      tag_269\n        /* \"#utility.yul\":14578:14583   */\n      dup2\n        /* \"#utility.yul\":14546:14584   */\n      tag_105\n      jump\t// in\n    tag_269:\n        /* \"#utility.yul\":14630:14659   */\n      tag_270\n        /* \"#utility.yul\":14648:14658   */\n      dup5\n        /* \"#utility.yul\":14630:14659   */\n      tag_106\n      jump\t// in\n    tag_270:\n        /* \"#utility.yul\":14620:14628   */\n      dup2\n        /* \"#utility.yul\":14616:14660   */\n      add\n        /* \"#utility.yul\":14813:14815   */\n      0x20\n        /* \"#utility.yul\":14801:14811   */\n      dup6\n        /* \"#utility.yul\":14798:14816   */\n      lt\n        /* \"#utility.yul\":14795:14844   */\n      iszero\n      tag_271\n      jumpi\n        /* \"#utility.yul\":14834:14842   */\n      dup2\n        /* \"#utility.yul\":14819:14842   */\n      swap1\n      pop\n        /* \"#utility.yul\":14795:14844   */\n    tag_271:\n        /* \"#utility.yul\":14857:14937   */\n      tag_272\n        /* \"#utility.yul\":14913:14935   */\n      tag_273\n        /* \"#utility.yul\":14931:14934   */\n      dup6\n        /* \"#utility.yul\":14913:14935   */\n      tag_106\n      jump\t// in\n    tag_273:\n        /* \"#utility.yul\":14903:14911   */\n      dup4\n        /* \"#utility.yul\":14899:14936   */\n      add\n        /* \"#utility.yul\":14886:14897   */\n      dup3\n        /* \"#utility.yul\":14857:14937   */\n      tag_115\n      jump\t// in\n    tag_272:\n        /* \"#utility.yul\":14516:14947   */\n      pop\n      pop\n        /* \"#utility.yul\":14501:14947   */\n    tag_268:\n        /* \"#utility.yul\":14411:14954   */\n      pop\n      pop\n      pop\n      jump\t// out\n        /* \"#utility.yul\":14960:15077   */\n    tag_117:\n        /* \"#utility.yul\":15014:15022   */\n      0x00\n        /* \"#utility.yul\":15064:15069   */\n      dup3\n        /* \"#utility.yul\":15058:15062   */\n      dup3\n        /* \"#utility.yul\":15054:15070   */\n      shr\n        /* \"#utility.yul\":15033:15070   */\n      swap1\n      pop\n        /* \"#utility.yul\":14960:15077   */\n      swap3\n      swap2\n      pop\n      pop\n      jump\t// out\n        /* \"#utility.yul\":15083:15252   */\n    tag_118:\n        /* \"#utility.yul\":15127:15133   */\n      0x00\n        /* \"#utility.yul\":15160:15211   */\n      tag_276\n        /* \"#utility.yul\":15208:15209   */\n      0x00\n        /* \"#utility.yul\":15204:15210   */\n      not\n        /* \"#utility.yul\":15196:15201   */\n      dup5\n        /* \"#utility.yul\":15193:15194   */\n      0x08\n        /* \"#utility.yul\":15189:15202   */\n      mul\n        /* \"#utility.yul\":15160:15211   */\n      tag_117\n      jump\t// in\n    tag_276:\n        /* \"#utility.yul\":15156:15212   */\n      not\n        /* \"#utility.yul\":15241:15245   */\n      dup1\n        /* \"#utility.yul\":15235:15239   */\n      dup4\n        /* \"#utility.yul\":15231:15246   */\n      and\n        /* \"#utility.yul\":15221:15246   */\n      swap2\n      pop\n        /* \"#utility.yul\":15134:15252   */\n      pop\n        /* \"#utility.yul\":15083:15252   */\n      swap3\n      swap2\n      pop\n      pop\n      jump\t// out\n        /* \"#utility.yul\":15257:15552   */\n    tag_119:\n        /* \"#utility.yul\":15333:15337   */\n      0x00\n        /* \"#utility.yul\":15479:15508   */\n      tag_278\n        /* \"#utility.yul\":15504:15507   */\n      dup4\n        /* \"#utility.yul\":15498:15502   */\n      dup4\n        /* \"#utility.yul\":15479:15508   */\n      tag_118\n      jump\t// in\n    tag_278:\n        /* \"#utility.yul\":15471:15508   */\n      swap2\n      pop\n        /* \"#utility.yul\":15541:15544   */\n      dup3\n        /* \"#utility.yul\":15538:15539   */\n      0x02\n        /* \"#utility.yul\":15534:15545   */\n      mul\n        /* \"#utility.yul\":15528:15532   */\n      dup3\n        /* \"#utility.yul\":15525:15546   */\n      or\n        /* \"#utility.yul\":15517:15546   */\n      swap1\n      pop\n        /* \"#utility.yul\":15257:15552   */\n      swap3\n      swap2\n      pop\n      pop\n      jump\t// out\n        /* \"#utility.yul\":15557:16952   */\n    tag_45:\n        /* \"#utility.yul\":15674:15711   */\n      tag_280\n        /* \"#utility.yul\":15707:15710   */\n      dup3\n        /* \"#utility.yul\":15674:15711   */\n      tag_90\n      jump\t// in\n    tag_280:\n        /* \"#utility.yul\":15776:15794   */\n      0xffffffffffffffff\n        /* \"#utility.yul\":15768:15774   */\n      dup2\n        /* \"#utility.yul\":15765:15795   */\n      gt\n        /* \"#utility.yul\":15762:15818   */\n      iszero\n      tag_281\n      jumpi\n        /* \"#utility.yul\":15798:15816   */\n      tag_282\n      tag_77\n      jump\t// in\n    tag_282:\n        /* \"#utility.yul\":15762:15818   */\n    tag_281:\n        /* \"#utility.yul\":15842:15880   */\n      tag_283\n        /* \"#utility.yul\":15874:15878   */\n      dup3\n        /* \"#utility.yul\":15868:15879   */\n      sload\n        /* \"#utility.yul\":15842:15880   */\n      tag_51\n      jump\t// in\n    tag_283:\n        /* \"#utility.yul\":15927:15994   */\n      tag_284\n        /* \"#utility.yul\":15987:15993   */\n      dup3\n        /* \"#utility.yul\":15979:15985   */\n      dup3\n        /* \"#utility.yul\":15973:15977   */\n      dup6\n        /* \"#utility.yul\":15927:15994   */\n      tag_116\n      jump\t// in\n    tag_284:\n        /* \"#utility.yul\":16021:16022   */\n      0x00\n        /* \"#utility.yul\":16045:16049   */\n      0x20\n        /* \"#utility.yul\":16032:16049   */\n      swap1\n      pop\n        /* \"#utility.yul\":16077:16079   */\n      0x1f\n        /* \"#utility.yul\":16069:16075   */\n      dup4\n        /* \"#utility.yul\":16066:16080   */\n      gt\n        /* \"#utility.yul\":16094:16095   */\n      0x01\n        /* \"#utility.yul\":16089:16707   */\n      dup2\n      eq\n      tag_286\n      jumpi\n        /* \"#utility.yul\":16751:16752   */\n      0x00\n        /* \"#utility.yul\":16768:16774   */\n      dup5\n        /* \"#utility.yul\":16765:16842   */\n      iszero\n      tag_287\n      jumpi\n        /* \"#utility.yul\":16817:16826   */\n      dup3\n        /* \"#utility.yul\":16812:16815   */\n      dup8\n        /* \"#utility.yul\":16808:16827   */\n      add\n        /* \"#utility.yul\":16802:16828   */\n      mload\n        /* \"#utility.yul\":16793:16828   */\n      swap1\n      pop\n        /* \"#utility.yul\":16765:16842   */\n    tag_287:\n        /* \"#utility.yul\":16868:16935   */\n      tag_288\n        /* \"#utility.yul\":16928:16934   */\n      dup6\n        /* \"#utility.yul\":16921:16926   */\n      dup3\n        /* \"#utility.yul\":16868:16935   */\n      tag_119\n      jump\t// in\n    tag_288:\n        /* \"#utility.yul\":16862:16866   */\n      dup7\n        /* \"#utility.yul\":16855:16936   */\n      sstore\n        /* \"#utility.yul\":16724:16946   */\n      pop\n        /* \"#utility.yul\":16059:16946   */\n      jump(tag_285)\n        /* \"#utility.yul\":16089:16707   */\n    tag_286:\n        /* \"#utility.yul\":16141:16145   */\n      0x1f\n        /* \"#utility.yul\":16137:16146   */\n      not\n        /* \"#utility.yul\":16129:16135   */\n      dup5\n        /* \"#utility.yul\":16125:16147   */\n      and\n        /* \"#utility.yul\":16175:16212   */\n      tag_289\n        /* \"#utility.yul\":16207:16211   */\n      dup7\n        /* \"#utility.yul\":16175:16212   */\n      tag_105\n      jump\t// in\n    tag_289:\n        /* \"#utility.yul\":16234:16235   */\n      0x00\n        /* \"#utility.yul\":16248:16456   */\n    tag_290:\n        /* \"#utility.yul\":16262:16269   */\n      dup3\n        /* \"#utility.yul\":16259:16260   */\n      dup2\n        /* \"#utility.yul\":16256:16270   */\n      lt\n        /* \"#utility.yul\":16248:16456   */\n      iszero\n      tag_292\n      jumpi\n        /* \"#utility.yul\":16341:16350   */\n      dup5\n        /* \"#utility.yul\":16336:16339   */\n      dup10\n        /* \"#utility.yul\":16332:16351   */\n      add\n        /* \"#utility.yul\":16326:16352   */\n      mload\n        /* \"#utility.yul\":16318:16324   */\n      dup3\n        /* \"#utility.yul\":16311:16353   */\n      sstore\n        /* \"#utility.yul\":16392:16393   */\n      0x01\n        /* \"#utility.yul\":16384:16390   */\n      dup3\n        /* \"#utility.yul\":16380:16394   */\n      add\n        /* \"#utility.yul\":16370:16394   */\n      swap2\n      pop\n        /* \"#utility.yul\":16439:16441   */\n      0x20\n        /* \"#utility.yul\":16428:16437   */\n      dup6\n        /* \"#utility.yul\":16424:16442   */\n      add\n        /* \"#utility.yul\":16411:16442   */\n      swap5\n      pop\n        /* \"#utility.yul\":16285:16289   */\n      0x20\n        /* \"#utility.yul\":16282:16283   */\n      dup2\n        /* \"#utility.yul\":16278:16290   */\n      add\n        /* \"#utility.yul\":16273:16290   */\n      swap1\n      pop\n        /* \"#utility.yul\":16248:16456   */\n      jump(tag_290)\n    tag_292:\n        /* \"#utility.yul\":16484:16490   */\n      dup7\n        /* \"#utility.yul\":16475:16482   */\n      dup4\n        /* \"#utility.yul\":16472:16491   */\n      lt\n        /* \"#utility.yul\":16469:16648   */\n      iszero\n      tag_293\n      jumpi\n        /* \"#utility.yul\":16542:16551   */\n      dup5\n        /* \"#utility.yul\":16537:16540   */\n      dup10\n        /* \"#utility.yul\":16533:16552   */\n      add\n        /* \"#utility.yul\":16527:16553   */\n      mload\n        /* \"#utility.yul\":16585:16633   */\n      tag_294\n        /* \"#utility.yul\":16627:16631   */\n      0x1f\n        /* \"#utility.yul\":16619:16625   */\n      dup10\n        /* \"#utility.yul\":16615:16632   */\n      and\n        /* \"#utility.yul\":16604:16613   */\n      dup3\n        /* \"#utility.yul\":16585:16633   */\n      tag_118\n      jump\t// in\n    tag_294:\n        /* \"#utility.yul\":16577:16583   */\n      dup4\n        /* \"#utility.yul\":16570:16634   */\n      sstore\n        /* \"#utility.yul\":16492:16648   */\n      pop\n        /* \"#utility.yul\":16469:16648   */\n    tag_293:\n        /* \"#utility.yul\":16694:16695   */\n      0x01\n        /* \"#utility.yul\":16690:16691   */\n      0x02\n        /* \"#utility.yul\":16682:16688   */\n      dup9\n        /* \"#utility.yul\":16678:16692   */\n      mul\n        /* \"#utility.yul\":16674:16696   */\n      add\n        /* \"#utility.yul\":16668:16672   */\n      dup9\n        /* \"#utility.yul\":16661:16697   */\n      sstore\n        /* \"#utility.yul\":16096:16707   */\n      pop\n      pop\n      pop\n        /* \"#utility.yul\":16059:16946   */\n    tag_285:\n      pop\n        /* \"#utility.yul\":15649:16952   */\n      pop\n      pop\n      pop\n        /* \"#utility.yul\":15557:16952   */\n      pop\n      pop\n      jump\t// out\n\n    auxdata: 0xa264697066735822122060291fed453166afe1c1d412b96ee45abde362ce892c9a9fb9a51c8b8bfda42964736f6c634300081f0033\n}\n",
				"bytecode": {
					"linkReferences": {},
					"object": "6080604052348015600e575f5ffd5b50335f5f6101000a81548173ffffffffffffffffffffffffffffffffffffffff021916908373ffffffffffffffffffffffffffffffffffffffff160217905550610d5e8061005b5f395ff3fe608060405260043610610054575f3560e01c80632d9e5387146100585780633227e180146100825780638da5cb5b1461008c578063b499b79a146100b6578063e83a1b00146100de578063ec066e3a14610108575b5f5ffd5b348015610063575f5ffd5b5061006c610146565b6040516100799190610501565b60405180910390f35b61008a61014d565b005b348015610097575f5ffd5b506100a061014f565b6040516100ad9190610559565b60405180910390f35b3480156100c1575f5ffd5b506100dc60048036038101906100d79190610724565b610173565b005b3480156100e9575f5ffd5b506100f26102c5565b6040516100ff9190610916565b60405180910390f35b348015610113575f5ffd5b5061012e60048036038101906101299190610936565b61040f565b60405161013d939291906109b8565b60405180910390f35b5f47905090565b565b5f5f9054906101000a900473ffffffffffffffffffffffffffffffffffffffff1681565b5f5f9054906101000a900473ffffffffffffffffffffffffffffffffffffffff1673ffffffffffffffffffffffffffffffffffffffff163373ffffffffffffffffffffffffffffffffffffffff1614610201576040517f08c379a00000000000000000000000000000000000000000000000000000000081526004016101f890610a3e565b60405180910390fd5b600160405180606001604052808573ffffffffffffffffffffffffffffffffffffffff16815260200184815260200183815250908060018154018082558091505060019003905f5260205f2090600302015f909190919091505f820151815f015f6101000a81548173ffffffffffffffffffffffffffffffffffffffff021916908373ffffffffffffffffffffffffffffffffffffffff16021790555060208201518160010190816102b39190610c59565b50604082015181600201555050505050565b60606001805480602002602001604051908101604052809291908181526020015f905b82821015610406578382905f5260205f2090600302016040518060600160405290815f82015f9054906101000a900473ffffffffffffffffffffffffffffffffffffffff1673ffffffffffffffffffffffffffffffffffffffff1673ffffffffffffffffffffffffffffffffffffffff16815260200160018201805461036d90610a89565b80601f016020809104026020016040519081016040528092919081815260200182805461039990610a89565b80156103e45780601f106103bb576101008083540402835291602001916103e4565b820191905f5260205f20905b8154815290600101906020018083116103c757829003601f168201915b50505050508152602001600282015481525050815260200190600101906102e8565b50505050905090565b6001818154811061041e575f80fd5b905f5260205f2090600302015f91509050805f015f9054906101000a900473ffffffffffffffffffffffffffffffffffffffff169080600101805461046290610a89565b80601f016020809104026020016040519081016040528092919081815260200182805461048e90610a89565b80156104d95780601f106104b0576101008083540402835291602001916104d9565b820191905f5260205f20905b8154815290600101906020018083116104bc57829003601f168201915b5050505050908060020154905083565b5f819050919050565b6104fb816104e9565b82525050565b5f6020820190506105145f8301846104f2565b92915050565b5f73ffffffffffffffffffffffffffffffffffffffff82169050919050565b5f6105438261051a565b9050919050565b61055381610539565b82525050565b5f60208201905061056c5f83018461054a565b92915050565b5f604051905090565b5f5ffd5b5f5ffd5b5f61058d8261051a565b9050919050565b61059d81610583565b81146105a7575f5ffd5b50565b5f813590506105b881610594565b92915050565b5f5ffd5b5f5ffd5b5f601f19601f8301169050919050565b7f4e487b71000000000000000000000000000000000000000000000000000000005f52604160045260245ffd5b61060c826105c6565b810181811067ffffffffffffffff8211171561062b5761062a6105d6565b5b80604052505050565b5f61063d610572565b90506106498282610603565b919050565b5f67ffffffffffffffff821115610668576106676105d6565b5b610671826105c6565b9050602081019050919050565b828183375f83830152505050565b5f61069e6106998461064e565b610634565b9050828152602081018484840111156106ba576106b96105c2565b5b6106c584828561067e565b509392505050565b5f82601f8301126106e1576106e06105be565b5b81356106f184826020860161068c565b91505092915050565b610703816104e9565b811461070d575f5ffd5b50565b5f8135905061071e816106fa565b92915050565b5f5f5f6060848603121561073b5761073a61057b565b5b5f610748868287016105aa565b935050602084013567ffffffffffffffff8111156107695761076861057f565b5b610775868287016106cd565b925050604061078686828701610710565b9150509250925092565b5f81519050919050565b5f82825260208201905092915050565b5f819050602082019050919050565b6107c281610583565b82525050565b5f81519050919050565b5f82825260208201905092915050565b8281835e5f83830152505050565b5f6107fa826107c8565b61080481856107d2565b93506108148185602086016107e2565b61081d816105c6565b840191505092915050565b610831816104e9565b82525050565b5f606083015f83015161084c5f8601826107b9565b506020830151848203602086015261086482826107f0565b91505060408301516108796040860182610828565b508091505092915050565b5f61088f8383610837565b905092915050565b5f602082019050919050565b5f6108ad82610790565b6108b7818561079a565b9350836020820285016108c9856107aa565b805f5b8581101561090457848403895281516108e58582610884565b94506108f083610897565b925060208a019950506001810190506108cc565b50829750879550505050505092915050565b5f6020820190508181035f83015261092e81846108a3565b905092915050565b5f6020828403121561094b5761094a61057b565b5b5f61095884828501610710565b91505092915050565b61096a81610583565b82525050565b5f82825260208201905092915050565b5f61098a826107c8565b6109948185610970565b93506109a48185602086016107e2565b6109ad816105c6565b840191505092915050565b5f6060820190506109cb5f830186610961565b81810360208301526109dd8185610980565b90506109ec60408301846104f2565b949350505050565b7f4f6e6c79206f776e6572000000000000000000000000000000000000000000005f82015250565b5f610a28600a83610970565b9150610a33826109f4565b602082019050919050565b5f6020820190508181035f830152610a5581610a1c565b9050919050565b7f4e487b71000000000000000000000000000000000000000000000000000000005f52602260045260245ffd5b5f6002820490506001821680610aa057607f821691505b602082108103610ab357610ab2610a5c565b5b50919050565b5f819050815f5260205f209050919050565b5f6020601f8301049050919050565b5f82821b905092915050565b5f60088302610b157fffffffffffffffffffffffffffffffffffffffffffffffffffffffffffffffff82610ada565b610b1f8683610ada565b95508019841693508086168417925050509392505050565b5f819050919050565b5f610b5a610b55610b50846104e9565b610b37565b6104e9565b9050919050565b5f819050919050565b610b7383610b40565b610b87610b7f82610b61565b848454610ae6565b825550505050565b5f5f905090565b610b9e610b8f565b610ba9818484610b6a565b505050565b5b81811015610bcc57610bc15f82610b96565b600181019050610baf565b5050565b601f821115610c1157610be281610ab9565b610beb84610acb565b81016020851015610bfa578190505b610c0e610c0685610acb565b830182610bae565b50505b505050565b5f82821c905092915050565b5f610c315f1984600802610c16565b1980831691505092915050565b5f610c498383610c22565b9150826002028217905092915050565b610c62826107c8565b67ffffffffffffffff811115610c7b57610c7a6105d6565b5b610c858254610a89565b610c90828285610bd0565b5f60209050601f831160018114610cc1575f8415610caf578287015190505b610cb98582610c3e565b865550610d20565b601f198416610ccf86610ab9565b5f5b82811015610cf657848901518255600182019150602085019450602081019050610cd1565b86831015610d135784890151610d0f601f891682610c22565b8355505b6001600288020188555050505b50505050505056fea264697066735822122060291fed453166afe1c1d412b96ee45abde362ce892c9a9fb9a51c8b8bfda42964736f6c634300081f0033",
					"opcodes": "PUSH1 0x80 PUSH1 0x40 MSTORE CALLVALUE DUP1 ISZERO PUSH1 0xE JUMPI PUSH0 PUSH0 REVERT JUMPDEST POP CALLER PUSH0 PUSH0 PUSH2 0x100 EXP DUP2 SLOAD DUP2 PUSH20 0xFFFFFFFFFFFFFFFFFFFFFFFFFFFFFFFFFFFFFFFF MUL NOT AND SWAP1 DUP4 PUSH20 0xFFFFFFFFFFFFFFFFFFFFFFFFFFFFFFFFFFFFFFFF AND MUL OR SWAP1 SSTORE POP PUSH2 0xD5E DUP1 PUSH2 0x5B PUSH0 CODECOPY PUSH0 RETURN INVALID PUSH1 0x80 PUSH1 0x40 MSTORE PUSH1 0x4 CALLDATASIZE LT PUSH2 0x54 JUMPI PUSH0 CALLDATALOAD PUSH1 0xE0 SHR DUP1 PUSH4 0x2D9E5387 EQ PUSH2 0x58 JUMPI DUP1 PUSH4 0x3227E180 EQ PUSH2 0x82 JUMPI DUP1 PUSH4 0x8DA5CB5B EQ PUSH2 0x8C JUMPI DUP1 PUSH4 0xB499B79A EQ PUSH2 0xB6 JUMPI DUP1 PUSH4 0xE83A1B00 EQ PUSH2 0xDE JUMPI DUP1 PUSH4 0xEC066E3A EQ PUSH2 0x108 JUMPI JUMPDEST PUSH0 PUSH0 REVERT JUMPDEST CALLVALUE DUP1 ISZERO PUSH2 0x63 JUMPI PUSH0 PUSH0 REVERT JUMPDEST POP PUSH2 0x6C PUSH2 0x146 JUMP JUMPDEST PUSH1 0x40 MLOAD PUSH2 0x79 SWAP2 SWAP1 PUSH2 0x501 JUMP JUMPDEST PUSH1 0x40 MLOAD DUP1 SWAP2 SUB SWAP1 RETURN JUMPDEST PUSH2 0x8A PUSH2 0x14D JUMP JUMPDEST STOP JUMPDEST CALLVALUE DUP1 ISZERO PUSH2 0x97 JUMPI PUSH0 PUSH0 REVERT JUMPDEST POP PUSH2 0xA0 PUSH2 0x14F JUMP JUMPDEST PUSH1 0x40 MLOAD PUSH2 0xAD SWAP2 SWAP1 PUSH2 0x559 JUMP JUMPDEST PUSH1 0x40 MLOAD DUP1 SWAP2 SUB SWAP1 RETURN JUMPDEST CALLVALUE DUP1 ISZERO PUSH2 0xC1 JUMPI PUSH0 PUSH0 REVERT JUMPDEST POP PUSH2 0xDC PUSH1 0x4 DUP1 CALLDATASIZE SUB DUP2 ADD SWAP1 PUSH2 0xD7 SWAP2 SWAP1 PUSH2 0x724 JUMP JUMPDEST PUSH2 0x173 JUMP JUMPDEST STOP JUMPDEST CALLVALUE DUP1 ISZERO PUSH2 0xE9 JUMPI PUSH0 PUSH0 REVERT JUMPDEST POP PUSH2 0xF2 PUSH2 0x2C5 JUMP JUMPDEST PUSH1 0x40 MLOAD PUSH2 0xFF SWAP2 SWAP1 PUSH2 0x916 JUMP JUMPDEST PUSH1 0x40 MLOAD DUP1 SWAP2 SUB SWAP1 RETURN JUMPDEST CALLVALUE DUP1 ISZERO PUSH2 0x113 JUMPI PUSH0 PUSH0 REVERT JUMPDEST POP PUSH2 0x12E PUSH1 0x4 DUP1 CALLDATASIZE SUB DUP2 ADD SWAP1 PUSH2 0x129 SWAP2 SWAP1 PUSH2 0x936 JUMP JUMPDEST PUSH2 0x40F JUMP JUMPDEST PUSH1 0x40 MLOAD PUSH2 0x13D SWAP4 SWAP3 SWAP2 SWAP1 PUSH2 0x9B8 JUMP JUMPDEST PUSH1 0x40 MLOAD DUP1 SWAP2 SUB SWAP1 RETURN JUMPDEST PUSH0 SELFBALANCE SWAP1 POP SWAP1 JUMP JUMPDEST JUMP JUMPDEST PUSH0 PUSH0 SWAP1 SLOAD SWAP1 PUSH2 0x100 EXP SWAP1 DIV PUSH20 0xFFFFFFFFFFFFFFFFFFFFFFFFFFFFFFFFFFFFFFFF AND DUP2 JUMP JUMPDEST PUSH0 PUSH0 SWAP1 SLOAD SWAP1 PUSH2 0x100 EXP SWAP1 DIV PUSH20 0xFFFFFFFFFFFFFFFFFFFFFFFFFFFFFFFFFFFFFFFF AND PUSH20 0xFFFFFFFFFFFFFFFFFFFFFFFFFFFFFFFFFFFFFFFF AND CALLER PUSH20 0xFFFFFFFFFFFFFFFFFFFFFFFFFFFFFFFFFFFFFFFF AND EQ PUSH2 0x201 JUMPI PUSH1 0x40 MLOAD PUSH32 0x8C379A000000000000000000000000000000000000000000000000000000000 DUP2 MSTORE PUSH1 0x4 ADD PUSH2 0x1F8 SWAP1 PUSH2 0xA3E JUMP JUMPDEST PUSH1 0x40 MLOAD DUP1 SWAP2 SUB SWAP1 REVERT JUMPDEST PUSH1 0x1 PUSH1 0x40 MLOAD DUP1 PUSH1 0x60 ADD PUSH1 0x40 MSTORE DUP1 DUP6 PUSH20 0xFFFFFFFFFFFFFFFFFFFFFFFFFFFFFFFFFFFFFFFF AND DUP2 MSTORE PUSH1 0x20 ADD DUP5 DUP2 MSTORE PUSH1 0x20 ADD DUP4 DUP2 MSTORE POP SWAP1 DUP1 PUSH1 0x1 DUP2 SLOAD ADD DUP1 DUP3 SSTORE DUP1 SWAP2 POP POP PUSH1 0x1 SWAP1 SUB SWAP1 PUSH0 MSTORE PUSH1 0x20 PUSH0 KECCAK256 SWAP1 PUSH1 0x3 MUL ADD PUSH0 SWAP1 SWAP2 SWAP1 SWAP2 SWAP1 SWAP2 POP PUSH0 DUP3 ADD MLOAD DUP2 PUSH0 ADD PUSH0 PUSH2 0x100 EXP DUP2 SLOAD DUP2 PUSH20 0xFFFFFFFFFFFFFFFFFFFFFFFFFFFFFFFFFFFFFFFF MUL NOT AND SWAP1 DUP4 PUSH20 0xFFFFFFFFFFFFFFFFFFFFFFFFFFFFFFFFFFFFFFFF AND MUL OR SWAP1 SSTORE POP PUSH1 0x20 DUP3 ADD MLOAD DUP2 PUSH1 0x1 ADD SWAP1 DUP2 PUSH2 0x2B3 SWAP2 SWAP1 PUSH2 0xC59 JUMP JUMPDEST POP PUSH1 0x40 DUP3 ADD MLOAD DUP2 PUSH1 0x2 ADD SSTORE POP POP POP POP POP JUMP JUMPDEST PUSH1 0x60 PUSH1 0x1 DUP1 SLOAD DUP1 PUSH1 0x20 MUL PUSH1 0x20 ADD PUSH1 0x40 MLOAD SWAP1 DUP2 ADD PUSH1 0x40 MSTORE DUP1 SWAP3 SWAP2 SWAP1 DUP2 DUP2 MSTORE PUSH1 0x20 ADD PUSH0 SWAP1 JUMPDEST DUP3 DUP3 LT ISZERO PUSH2 0x406 JUMPI DUP4 DUP3 SWAP1 PUSH0 MSTORE PUSH1 0x20 PUSH0 KECCAK256 SWAP1 PUSH1 0x3 MUL ADD PUSH1 0x40 MLOAD DUP1 PUSH1 0x60 ADD PUSH1 0x40 MSTORE SWAP1 DUP2 PUSH0 DUP3 ADD PUSH0 SWAP1 SLOAD SWAP1 PUSH2 0x100 EXP SWAP1 DIV PUSH20 0xFFFFFFFFFFFFFFFFFFFFFFFFFFFFFFFFFFFFFFFF AND PUSH20 0xFFFFFFFFFFFFFFFFFFFFFFFFFFFFFFFFFFFFFFFF AND PUSH20 0xFFFFFFFFFFFFFFFFFFFFFFFFFFFFFFFFFFFFFFFF AND DUP2 MSTORE PUSH1 0x20 ADD PUSH1 0x1 DUP3 ADD DUP1 SLOAD PUSH2 0x36D SWAP1 PUSH2 0xA89 JUMP JUMPDEST DUP1 PUSH1 0x1F ADD PUSH1 0x20 DUP1 SWAP2 DIV MUL PUSH1 0x20 ADD PUSH1 0x40 MLOAD SWAP1 DUP2 ADD PUSH1 0x40 MSTORE DUP1 SWAP3 SWAP2 SWAP1 DUP2 DUP2 MSTORE PUSH1 0x20 ADD DUP3 DUP1 SLOAD PUSH2 0x399 SWAP1 PUSH2 0xA89 JUMP JUMPDEST DUP1 ISZERO PUSH2 0x3E4 JUMPI DUP1 PUSH1 0x1F LT PUSH2 0x3BB JUMPI PUSH2 0x100 DUP1 DUP4 SLOAD DIV MUL DUP4 MSTORE SWAP2 PUSH1 0x20 ADD SWAP2 PUSH2 0x3E4 JUMP JUMPDEST DUP3 ADD SWAP2 SWAP1 PUSH0 MSTORE PUSH1 0x20 PUSH0 KECCAK256 SWAP1 JUMPDEST DUP2 SLOAD DUP2 MSTORE SWAP1 PUSH1 0x1 ADD SWAP1 PUSH1 0x20 ADD DUP1 DUP4 GT PUSH2 0x3C7 JUMPI DUP3 SWAP1 SUB PUSH1 0x1F AND DUP3 ADD SWAP2 JUMPDEST POP POP POP POP POP DUP2 MSTORE PUSH1 0x20 ADD PUSH1 0x2 DUP3 ADD SLOAD DUP2 MSTORE POP POP DUP2 MSTORE PUSH1 0x20 ADD SWAP1 PUSH1 0x1 ADD SWAP1 PUSH2 0x2E8 JUMP JUMPDEST POP POP POP POP SWAP1 POP SWAP1 JUMP JUMPDEST PUSH1 0x1 DUP2 DUP2 SLOAD DUP2 LT PUSH2 0x41E JUMPI PUSH0 DUP1 REVERT JUMPDEST SWAP1 PUSH0 MSTORE PUSH1 0x20 PUSH0 KECCAK256 SWAP1 PUSH1 0x3 MUL ADD PUSH0 SWAP2 POP SWAP1 POP DUP1 PUSH0 ADD PUSH0 SWAP1 SLOAD SWAP1 PUSH2 0x100 EXP SWAP1 DIV PUSH20 0xFFFFFFFFFFFFFFFFFFFFFFFFFFFFFFFFFFFFFFFF AND SWAP1 DUP1 PUSH1 0x1 ADD DUP1 SLOAD PUSH2 0x462 SWAP1 PUSH2 0xA89 JUMP JUMPDEST DUP1 PUSH1 0x1F ADD PUSH1 0x20 DUP1 SWAP2 DIV MUL PUSH1 0x20 ADD PUSH1 0x40 MLOAD SWAP1 DUP2 ADD PUSH1 0x40 MSTORE DUP1 SWAP3 SWAP2 SWAP1 DUP2 DUP2 MSTORE PUSH1 0x20 ADD DUP3 DUP1 SLOAD PUSH2 0x48E SWAP1 PUSH2 0xA89 JUMP JUMPDEST DUP1 ISZERO PUSH2 0x4D9 JUMPI DUP1 PUSH1 0x1F LT PUSH2 0x4B0 JUMPI PUSH2 0x100 DUP1 DUP4 SLOAD DIV MUL DUP4 MSTORE SWAP2 PUSH1 0x20 ADD SWAP2 PUSH2 0x4D9 JUMP JUMPDEST DUP3 ADD SWAP2 SWAP1 PUSH0 MSTORE PUSH1 0x20 PUSH0 KECCAK256 SWAP1 JUMPDEST DUP2 SLOAD DUP2 MSTORE SWAP1 PUSH1 0x1 ADD SWAP1 PUSH1 0x20 ADD DUP1 DUP4 GT PUSH2 0x4BC JUMPI DUP3 SWAP1 SUB PUSH1 0x1F AND DUP3 ADD SWAP2 JUMPDEST POP POP POP POP POP SWAP1 DUP1 PUSH1 0x2 ADD SLOAD SWAP1 POP DUP4 JUMP JUMPDEST PUSH0 DUP2 SWAP1 POP SWAP2 SWAP1 POP JUMP JUMPDEST PUSH2 0x4FB DUP2 PUSH2 0x4E9 JUMP JUMPDEST DUP3 MSTORE POP POP JUMP JUMPDEST PUSH0 PUSH1 0x20 DUP3 ADD SWAP1 POP PUSH2 0x514 PUSH0 DUP4 ADD DUP5 PUSH2 0x4F2 JUMP JUMPDEST SWAP3 SWAP2 POP POP JUMP JUMPDEST PUSH0 PUSH20 0xFFFFFFFFFFFFFFFFFFFFFFFFFFFFFFFFFFFFFFFF DUP3 AND SWAP1 POP SWAP2 SWAP1 POP JUMP JUMPDEST PUSH0 PUSH2 0x543 DUP3 PUSH2 0x51A JUMP JUMPDEST SWAP1 POP SWAP2 SWAP1 POP JUMP JUMPDEST PUSH2 0x553 DUP2 PUSH2 0x539 JUMP JUMPDEST DUP3 MSTORE POP POP JUMP JUMPDEST PUSH0 PUSH1 0x20 DUP3 ADD SWAP1 POP PUSH2 0x56C PUSH0 DUP4 ADD DUP5 PUSH2 0x54A JUMP JUMPDEST SWAP3 SWAP2 POP POP JUMP JUMPDEST PUSH0 PUSH1 0x40 MLOAD SWAP1 POP SWAP1 JUMP JUMPDEST PUSH0 PUSH0 REVERT JUMPDEST PUSH0 PUSH0 REVERT JUMPDEST PUSH0 PUSH2 0x58D DUP3 PUSH2 0x51A JUMP JUMPDEST SWAP1 POP SWAP2 SWAP1 POP JUMP JUMPDEST PUSH2 0x59D DUP2 PUSH2 0x583 JUMP JUMPDEST DUP2 EQ PUSH2 0x5A7 JUMPI PUSH0 PUSH0 REVERT JUMPDEST POP JUMP JUMPDEST PUSH0 DUP2 CALLDATALOAD SWAP1 POP PUSH2 0x5B8 DUP2 PUSH2 0x594 JUMP JUMPDEST SWAP3 SWAP2 POP POP JUMP JUMPDEST PUSH0 PUSH0 REVERT JUMPDEST PUSH0 PUSH0 REVERT JUMPDEST PUSH0 PUSH1 0x1F NOT PUSH1 0x1F DUP4 ADD AND SWAP1 POP SWAP2 SWAP1 POP JUMP JUMPDEST PUSH32 0x4E487B7100000000000000000000000000000000000000000000000000000000 PUSH0 MSTORE PUSH1 0x41 PUSH1 0x4 MSTORE PUSH1 0x24 PUSH0 REVERT JUMPDEST PUSH2 0x60C DUP3 PUSH2 0x5C6 JUMP JUMPDEST DUP2 ADD DUP2 DUP2 LT PUSH8 0xFFFFFFFFFFFFFFFF DUP3 GT OR ISZERO PUSH2 0x62B JUMPI PUSH2 0x62A PUSH2 0x5D6 JUMP JUMPDEST JUMPDEST DUP1 PUSH1 0x40 MSTORE POP POP POP JUMP JUMPDEST PUSH0 PUSH2 0x63D PUSH2 0x572 JUMP JUMPDEST SWAP1 POP PUSH2 0x649 DUP3 DUP3 PUSH2 0x603 JUMP JUMPDEST SWAP2 SWAP1 POP JUMP JUMPDEST PUSH0 PUSH8 0xFFFFFFFFFFFFFFFF DUP3 GT ISZERO PUSH2 0x668 JUMPI PUSH2 0x667 PUSH2 0x5D6 JUMP JUMPDEST JUMPDEST PUSH2 0x671 DUP3 PUSH2 0x5C6 JUMP JUMPDEST SWAP1 POP PUSH1 0x20 DUP2 ADD SWAP1 POP SWAP2 SWAP1 POP JUMP JUMPDEST DUP3 DUP2 DUP4 CALLDATACOPY PUSH0 DUP4 DUP4 ADD MSTORE POP POP POP JUMP JUMPDEST PUSH0 PUSH2 0x69E PUSH2 0x699 DUP5 PUSH2 0x64E JUMP JUMPDEST PUSH2 0x634 JUMP JUMPDEST SWAP1 POP DUP3 DUP2 MSTORE PUSH1 0x20 DUP2 ADD DUP5 DUP5 DUP5 ADD GT ISZERO PUSH2 0x6BA JUMPI PUSH2 0x6B9 PUSH2 0x5C2 JUMP JUMPDEST JUMPDEST PUSH2 0x6C5 DUP5 DUP3 DUP6 PUSH2 0x67E JUMP JUMPDEST POP SWAP4 SWAP3 POP POP POP JUMP JUMPDEST PUSH0 DUP3 PUSH1 0x1F DUP4 ADD SLT PUSH2 0x6E1 JUMPI PUSH2 0x6E0 PUSH2 0x5BE JUMP JUMPDEST JUMPDEST DUP2 CALLDATALOAD PUSH2 0x6F1 DUP5 DUP3 PUSH1 0x20 DUP7 ADD PUSH2 0x68C JUMP JUMPDEST SWAP2 POP POP SWAP3 SWAP2 POP POP JUMP JUMPDEST PUSH2 0x703 DUP2 PUSH2 0x4E9 JUMP JUMPDEST DUP2 EQ PUSH2 0x70D JUMPI PUSH0 PUSH0 REVERT JUMPDEST POP JUMP JUMPDEST PUSH0 DUP2 CALLDATALOAD SWAP1 POP PUSH2 0x71E DUP2 PUSH2 0x6FA JUMP JUMPDEST SWAP3 SWAP2 POP POP JUMP JUMPDEST PUSH0 PUSH0 PUSH0 PUSH1 0x60 DUP5 DUP7 SUB SLT ISZERO PUSH2 0x73B JUMPI PUSH2 0x73A PUSH2 0x57B JUMP JUMPDEST JUMPDEST PUSH0 PUSH2 0x748 DUP7 DUP3 DUP8 ADD PUSH2 0x5AA JUMP JUMPDEST SWAP4 POP POP PUSH1 0x20 DUP5 ADD CALLDATALOAD PUSH8 0xFFFFFFFFFFFFFFFF DUP2 GT ISZERO PUSH2 0x769 JUMPI PUSH2 0x768 PUSH2 0x57F JUMP JUMPDEST JUMPDEST PUSH2 0x775 DUP7 DUP3 DUP8 ADD PUSH2 0x6CD JUMP JUMPDEST SWAP3 POP POP PUSH1 0x40 PUSH2 0x786 DUP7 DUP3 DUP8 ADD PUSH2 0x710 JUMP JUMPDEST SWAP2 POP POP SWAP3 POP SWAP3 POP SWAP3 JUMP JUMPDEST PUSH0 DUP2 MLOAD SWAP1 POP SWAP2 SWAP1 POP JUMP JUMPDEST PUSH0 DUP3 DUP3 MSTORE PUSH1 0x20 DUP3 ADD SWAP1 POP SWAP3 SWAP2 POP POP JUMP JUMPDEST PUSH0 DUP2 SWAP1 POP PUSH1 0x20 DUP3 ADD SWAP1 POP SWAP2 SWAP1 POP JUMP JUMPDEST PUSH2 0x7C2 DUP2 PUSH2 0x583 JUMP JUMPDEST DUP3 MSTORE POP POP JUMP JUMPDEST PUSH0 DUP2 MLOAD SWAP1 POP SWAP2 SWAP1 POP JUMP JUMPDEST PUSH0 DUP3 DUP3 MSTORE PUSH1 0x20 DUP3 ADD SWAP1 POP SWAP3 SWAP2 POP POP JUMP JUMPDEST DUP3 DUP2 DUP4 MCOPY PUSH0 DUP4 DUP4 ADD MSTORE POP POP POP JUMP JUMPDEST PUSH0 PUSH2 0x7FA DUP3 PUSH2 0x7C8 JUMP JUMPDEST PUSH2 0x804 DUP2 DUP6 PUSH2 0x7D2 JUMP JUMPDEST SWAP4 POP PUSH2 0x814 DUP2 DUP6 PUSH1 0x20 DUP7 ADD PUSH2 0x7E2 JUMP JUMPDEST PUSH2 0x81D DUP2 PUSH2 0x5C6 JUMP JUMPDEST DUP5 ADD SWAP2 POP POP SWAP3 SWAP2 POP POP JUMP JUMPDEST PUSH2 0x831 DUP2 PUSH2 0x4E9 JUMP JUMPDEST DUP3 MSTORE POP POP JUMP JUMPDEST PUSH0 PUSH1 0x60 DUP4 ADD PUSH0 DUP4 ADD MLOAD PUSH2 0x84C PUSH0 DUP7 ADD DUP3 PUSH2 0x7B9 JUMP JUMPDEST POP PUSH1 0x20 DUP4 ADD MLOAD DUP5 DUP3 SUB PUSH1 0x20 DUP7 ADD MSTORE PUSH2 0x864 DUP3 DUP3 PUSH2 0x7F0 JUMP JUMPDEST SWAP2 POP POP PUSH1 0x40 DUP4 ADD MLOAD PUSH2 0x879 PUSH1 0x40 DUP7 ADD DUP3 PUSH2 0x828 JUMP JUMPDEST POP DUP1 SWAP2 POP POP SWAP3 SWAP2 POP POP JUMP JUMPDEST PUSH0 PUSH2 0x88F DUP4 DUP4 PUSH2 0x837 JUMP JUMPDEST SWAP1 POP SWAP3 SWAP2 POP POP JUMP JUMPDEST PUSH0 PUSH1 0x20 DUP3 ADD SWAP1 POP SWAP2 SWAP1 POP JUMP JUMPDEST PUSH0 PUSH2 0x8AD DUP3 PUSH2 0x790 JUMP JUMPDEST PUSH2 0x8B7 DUP2 DUP6 PUSH2 0x79A JUMP JUMPDEST SWAP4 POP DUP4 PUSH1 0x20 DUP3 MUL DUP6 ADD PUSH2 0x8C9 DUP6 PUSH2 0x7AA JUMP JUMPDEST DUP1 PUSH0 JUMPDEST DUP6 DUP2 LT ISZERO PUSH2 0x904 JUMPI DUP5 DUP5 SUB DUP10 MSTORE DUP2 MLOAD PUSH2 0x8E5 DUP6 DUP3 PUSH2 0x884 JUMP JUMPDEST SWAP5 POP PUSH2 0x8F0 DUP4 PUSH2 0x897 JUMP JUMPDEST SWAP3 POP PUSH1 0x20 DUP11 ADD SWAP10 POP POP PUSH1 0x1 DUP2 ADD SWAP1 POP PUSH2 0x8CC JUMP JUMPDEST POP DUP3 SWAP8 POP DUP8 SWAP6 POP POP POP POP POP POP SWAP3 SWAP2 POP POP JUMP JUMPDEST PUSH0 PUSH1 0x20 DUP3 ADD SWAP1 POP DUP2 DUP2 SUB PUSH0 DUP4 ADD MSTORE PUSH2 0x92E DUP2 DUP5 PUSH2 0x8A3 JUMP JUMPDEST SWAP1 POP SWAP3 SWAP2 POP POP JUMP JUMPDEST PUSH0 PUSH1 0x20 DUP3 DUP5 SUB SLT ISZERO PUSH2 0x94B JUMPI PUSH2 0x94A PUSH2 0x57B JUMP JUMPDEST JUMPDEST PUSH0 PUSH2 0x958 DUP5 DUP3 DUP6 ADD PUSH2 0x710 JUMP JUMPDEST SWAP2 POP POP SWAP3 SWAP2 POP POP JUMP JUMPDEST PUSH2 0x96A DUP2 PUSH2 0x583 JUMP JUMPDEST DUP3 MSTORE POP POP JUMP JUMPDEST PUSH0 DUP3 DUP3 MSTORE PUSH1 0x20 DUP3 ADD SWAP1 POP SWAP3 SWAP2 POP POP JUMP JUMPDEST PUSH0 PUSH2 0x98A DUP3 PUSH2 0x7C8 JUMP JUMPDEST PUSH2 0x994 DUP2 DUP6 PUSH2 0x970 JUMP JUMPDEST SWAP4 POP PUSH2 0x9A4 DUP2 DUP6 PUSH1 0x20 DUP7 ADD PUSH2 0x7E2 JUMP JUMPDEST PUSH2 0x9AD DUP2 PUSH2 0x5C6 JUMP JUMPDEST DUP5 ADD SWAP2 POP POP SWAP3 SWAP2 POP POP JUMP JUMPDEST PUSH0 PUSH1 0x60 DUP3 ADD SWAP1 POP PUSH2 0x9CB PUSH0 DUP4 ADD DUP7 PUSH2 0x961 JUMP JUMPDEST DUP2 DUP2 SUB PUSH1 0x20 DUP4 ADD MSTORE PUSH2 0x9DD DUP2 DUP6 PUSH2 0x980 JUMP JUMPDEST SWAP1 POP PUSH2 0x9EC PUSH1 0x40 DUP4 ADD DUP5 PUSH2 0x4F2 JUMP JUMPDEST SWAP5 SWAP4 POP POP POP POP JUMP JUMPDEST PUSH32 0x4F6E6C79206F776E657200000000000000000000000000000000000000000000 PUSH0 DUP3 ADD MSTORE POP JUMP JUMPDEST PUSH0 PUSH2 0xA28 PUSH1 0xA DUP4 PUSH2 0x970 JUMP JUMPDEST SWAP2 POP PUSH2 0xA33 DUP3 PUSH2 0x9F4 JUMP JUMPDEST PUSH1 0x20 DUP3 ADD SWAP1 POP SWAP2 SWAP1 POP JUMP JUMPDEST PUSH0 PUSH1 0x20 DUP3 ADD SWAP1 POP DUP2 DUP2 SUB PUSH0 DUP4 ADD MSTORE PUSH2 0xA55 DUP2 PUSH2 0xA1C JUMP JUMPDEST SWAP1 POP SWAP2 SWAP1 POP JUMP JUMPDEST PUSH32 0x4E487B7100000000000000000000000000000000000000000000000000000000 PUSH0 MSTORE PUSH1 0x22 PUSH1 0x4 MSTORE PUSH1 0x24 PUSH0 REVERT JUMPDEST PUSH0 PUSH1 0x2 DUP3 DIV SWAP1 POP PUSH1 0x1 DUP3 AND DUP1 PUSH2 0xAA0 JUMPI PUSH1 0x7F DUP3 AND SWAP2 POP JUMPDEST PUSH1 0x20 DUP3 LT DUP2 SUB PUSH2 0xAB3 JUMPI PUSH2 0xAB2 PUSH2 0xA5C JUMP JUMPDEST JUMPDEST POP SWAP2 SWAP1 POP JUMP JUMPDEST PUSH0 DUP2 SWAP1 POP DUP2 PUSH0 MSTORE PUSH1 0x20 PUSH0 KECCAK256 SWAP1 POP SWAP2 SWAP1 POP JUMP JUMPDEST PUSH0 PUSH1 0x20 PUSH1 0x1F DUP4 ADD DIV SWAP1 POP SWAP2 SWAP1 POP JUMP JUMPDEST PUSH0 DUP3 DUP3 SHL SWAP1 POP SWAP3 SWAP2 POP POP JUMP JUMPDEST PUSH0 PUSH1 0x8 DUP4 MUL PUSH2 0xB15 PUSH32 0xFFFFFFFFFFFFFFFFFFFFFFFFFFFFFFFFFFFFFFFFFFFFFFFFFFFFFFFFFFFFFFFF DUP3 PUSH2 0xADA JUMP JUMPDEST PUSH2 0xB1F DUP7 DUP4 PUSH2 0xADA JUMP JUMPDEST SWAP6 POP DUP1 NOT DUP5 AND SWAP4 POP DUP1 DUP7 AND DUP5 OR SWAP3 POP POP POP SWAP4 SWAP3 POP POP POP JUMP JUMPDEST PUSH0 DUP2 SWAP1 POP SWAP2 SWAP1 POP JUMP JUMPDEST PUSH0 PUSH2 0xB5A PUSH2 0xB55 PUSH2 0xB50 DUP5 PUSH2 0x4E9 JUMP JUMPDEST PUSH2 0xB37 JUMP JUMPDEST PUSH2 0x4E9 JUMP JUMPDEST SWAP1 POP SWAP2 SWAP1 POP JUMP JUMPDEST PUSH0 DUP2 SWAP1 POP SWAP2 SWAP1 POP JUMP JUMPDEST PUSH2 0xB73 DUP4 PUSH2 0xB40 JUMP JUMPDEST PUSH2 0xB87 PUSH2 0xB7F DUP3 PUSH2 0xB61 JUMP JUMPDEST DUP5 DUP5 SLOAD PUSH2 0xAE6 JUMP JUMPDEST DUP3 SSTORE POP POP POP POP JUMP JUMPDEST PUSH0 PUSH0 SWAP1 POP SWAP1 JUMP JUMPDEST PUSH2 0xB9E PUSH2 0xB8F JUMP JUMPDEST PUSH2 0xBA9 DUP2 DUP5 DUP5 PUSH2 0xB6A JUMP JUMPDEST POP POP POP JUMP JUMPDEST JUMPDEST DUP2 DUP2 LT ISZERO PUSH2 0xBCC JUMPI PUSH2 0xBC1 PUSH0 DUP3 PUSH2 0xB96 JUMP JUMPDEST PUSH1 0x1 DUP2 ADD SWAP1 POP PUSH2 0xBAF JUMP JUMPDEST POP POP JUMP JUMPDEST PUSH1 0x1F DUP3 GT ISZERO PUSH2 0xC11 JUMPI PUSH2 0xBE2 DUP2 PUSH2 0xAB9 JUMP JUMPDEST PUSH2 0xBEB DUP5 PUSH2 0xACB JUMP JUMPDEST DUP2 ADD PUSH1 0x20 DUP6 LT ISZERO PUSH2 0xBFA JUMPI DUP2 SWAP1 POP JUMPDEST PUSH2 0xC0E PUSH2 0xC06 DUP6 PUSH2 0xACB JUMP JUMPDEST DUP4 ADD DUP3 PUSH2 0xBAE JUMP JUMPDEST POP POP JUMPDEST POP POP POP JUMP JUMPDEST PUSH0 DUP3 DUP3 SHR SWAP1 POP SWAP3 SWAP2 POP POP JUMP JUMPDEST PUSH0 PUSH2 0xC31 PUSH0 NOT DUP5 PUSH1 0x8 MUL PUSH2 0xC16 JUMP JUMPDEST NOT DUP1 DUP4 AND SWAP2 POP POP SWAP3 SWAP2 POP POP JUMP JUMPDEST PUSH0 PUSH2 0xC49 DUP4 DUP4 PUSH2 0xC22 JUMP JUMPDEST SWAP2 POP DUP3 PUSH1 0x2 MUL DUP3 OR SWAP1 POP SWAP3 SWAP2 POP POP JUMP JUMPDEST PUSH2 0xC62 DUP3 PUSH2 0x7C8 JUMP JUMPDEST PUSH8 0xFFFFFFFFFFFFFFFF DUP2 GT ISZERO PUSH2 0xC7B JUMPI PUSH2 0xC7A PUSH2 0x5D6 JUMP JUMPDEST JUMPDEST PUSH2 0xC85 DUP3 SLOAD PUSH2 0xA89 JUMP JUMPDEST PUSH2 0xC90 DUP3 DUP3 DUP6 PUSH2 0xBD0 JUMP JUMPDEST PUSH0 PUSH1 0x20 SWAP1 POP PUSH1 0x1F DUP4 GT PUSH1 0x1 DUP2 EQ PUSH2 0xCC1 JUMPI PUSH0 DUP5 ISZERO PUSH2 0xCAF JUMPI DUP3 DUP8 ADD MLOAD SWAP1 POP JUMPDEST PUSH2 0xCB9 DUP6 DUP3 PUSH2 0xC3E JUMP JUMPDEST DUP7 SSTORE POP PUSH2 0xD20 JUMP JUMPDEST PUSH1 0x1F NOT DUP5 AND PUSH2 0xCCF DUP7 PUSH2 0xAB9 JUMP JUMPDEST PUSH0 JUMPDEST DUP3 DUP2 LT ISZERO PUSH2 0xCF6 JUMPI DUP5 DUP10 ADD MLOAD DUP3 SSTORE PUSH1 0x1 DUP3 ADD SWAP2 POP PUSH1 0x20 DUP6 ADD SWAP5 POP PUSH1 0x20 DUP2 ADD SWAP1 POP PUSH2 0xCD1 JUMP JUMPDEST DUP7 DUP4 LT ISZERO PUSH2 0xD13 JUMPI DUP5 DUP10 ADD MLOAD PUSH2 0xD0F PUSH1 0x1F DUP10 AND DUP3 PUSH2 0xC22 JUMP JUMPDEST DUP4 SSTORE POP JUMPDEST PUSH1 0x1 PUSH1 0x2 DUP9 MUL ADD DUP9 SSTORE POP POP POP JUMPDEST POP POP POP POP POP POP JUMP INVALID LOG2 PUSH5 0x6970667358 0x22 SLT KECCAK256 PUSH1 0x29 0x1F 0xED GASLIMIT BALANCE PUSH7 0xAFE1C1D412B96E RETF GAS 0xBD CALLF 0x62CE DUP10 0x2C SWAP11 SWAP16 0xB9 0xA5 SHR DUP12 DUP12 REVERT LOG4 0x29 PUSH5 0x736F6C6343 STOP ADDMOD 0x1F STOP CALLER "
				},
				"gasEstimates": {
					"creation": {
						"codeDepositCost": "684400",
						"executionCost": "24977",
						"totalCost": "709377"
					},
					"external": {
						"addTips()": "119",
						"addWaitress(address,string,uint256)": "infinite",
						"owner()": "2529",
						"viewTips()": "312",
						"viewWaitress()": "infinite",
						"waitress(uint256)": "infinite"
					}
				},
				"methodIdentifiers": {
					"addTips()": "3227e180",
					"addWaitress(address,string,uint256)": "b499b79a",
					"owner()": "8da5cb5b",
					"viewTips()": "2d9e5387",
					"viewWaitress()": "e83a1b00",
					"waitress(uint256)": "ec066e3a"
				}
			},
			"storageLayout": {
				"storage": [
					{
						"astId": 3,
						"contract": "tipjar.sol:Tips",
						"label": "owner",
						"offset": 0,
						"slot": "0",
						"type": "t_address"
					},
					{
						"astId": 39,
						"contract": "tipjar.sol:Tips",
						"label": "waitress",
						"offset": 0,
						"slot": "1",
						"type": "t_array(t_struct(Waitress)35_storage)dyn_storage"
					}
				],
				"types": {
					"t_address": {
						"encoding": "inplace",
						"label": "address",
						"numberOfBytes": "20"
					},
					"t_address_payable": {
						"encoding": "inplace",
						"label": "address payable",
						"numberOfBytes": "20"
					},
					"t_array(t_struct(Waitress)35_storage)dyn_storage": {
						"base": "t_struct(Waitress)35_storage",
						"encoding": "dynamic_array",
						"label": "struct Tips.Waitress[]",
						"numberOfBytes": "32"
					},
					"t_string_storage": {
						"encoding": "bytes",
						"label": "string",
						"numberOfBytes": "32"
					},
					"t_struct(Waitress)35_storage": {
						"encoding": "inplace",
						"label": "struct Tips.Waitress",
						"members": [
							{
								"astId": 30,
								"contract": "tipjar.sol:Tips",
								"label": "walletAddress",
								"offset": 0,
								"slot": "0",
								"type": "t_address_payable"
							},
							{
								"astId": 32,
								"contract": "tipjar.sol:Tips",
								"label": "name",
								"offset": 0,
								"slot": "1",
								"type": "t_string_storage"
							},
							{
								"astId": 34,
								"contract": "tipjar.sol:Tips",
								"label": "percent",
								"offset": 0,
								"slot": "2",
								"type": "t_uint256"
							}
						],
						"numberOfBytes": "96"
					},
					"t_uint256": {
						"encoding": "inplace",
						"label": "uint256",
						"numberOfBytes": "32"
					}
				}
			},
			"userdoc": {
				"kind": "user",
				"methods": {},
				"version": 1
			}
		}
	}
}